{
	"contracts/FundMe.sol": {
		"FundMe": {
			"abi": [
				{
					"inputs": [],
					"stateMutability": "nonpayable",
					"type": "constructor"
				},
				{
					"inputs": [
						{
							"internalType": "address",
							"name": "",
							"type": "address"
						}
					],
					"name": "addressToAmountFunded",
					"outputs": [
						{
							"internalType": "uint256",
							"name": "",
							"type": "uint256"
						}
					],
					"stateMutability": "view",
					"type": "function"
				},
				{
					"inputs": [],
					"name": "fund",
					"outputs": [],
					"stateMutability": "payable",
					"type": "function"
				},
				{
					"inputs": [
						{
							"internalType": "uint256",
							"name": "ethAmount",
							"type": "uint256"
						}
					],
					"name": "getConversionRate",
					"outputs": [
						{
							"internalType": "uint256",
							"name": "",
							"type": "uint256"
						}
					],
					"stateMutability": "view",
					"type": "function"
				},
				{
					"inputs": [],
					"name": "getPrice",
					"outputs": [
						{
							"internalType": "uint256",
							"name": "",
							"type": "uint256"
						}
					],
					"stateMutability": "view",
					"type": "function"
				},
				{
					"inputs": [],
					"name": "owner",
					"outputs": [
						{
							"internalType": "address",
							"name": "",
							"type": "address"
						}
					],
					"stateMutability": "view",
					"type": "function"
				},
				{
					"inputs": [],
					"name": "totalFundsRaised",
					"outputs": [
						{
							"internalType": "uint256",
							"name": "",
							"type": "uint256"
						}
					],
					"stateMutability": "view",
					"type": "function"
				},
				{
					"inputs": [],
					"name": "withdraw",
					"outputs": [],
					"stateMutability": "payable",
					"type": "function"
				}
			],
			"devdoc": {
				"kind": "dev",
				"methods": {},
				"version": 1
			},
			"evm": {
				"assembly": "    /* \"contracts/FundMe.sol\":207:2019  contract FundMe {\r... */\n  mstore(0x40, 0x80)\n    /* \"contracts/FundMe.sol\":381:402  address(this).balance */\n  selfbalance\n    /* \"contracts/FundMe.sol\":347:402  uint256 public totalFundsRaised = address(this).balance */\n  0x03\n  sstore\n    /* \"contracts/FundMe.sol\":411:469  constructor() public {\r... */\n  callvalue\n  dup1\n  iszero\n  tag_1\n  jumpi\n  0x00\n  dup1\n  revert\ntag_1:\n  pop\n    /* \"contracts/FundMe.sol\":451:461  msg.sender */\n  caller\n    /* \"contracts/FundMe.sol\":443:448  owner */\n  0x02\n  0x00\n    /* \"contracts/FundMe.sol\":443:461  owner = msg.sender */\n  0x0100\n  exp\n  dup2\n  sload\n  dup2\n  0xffffffffffffffffffffffffffffffffffffffff\n  mul\n  not\n  and\n  swap1\n  dup4\n  0xffffffffffffffffffffffffffffffffffffffff\n  and\n  mul\n  or\n  swap1\n  sstore\n  pop\n    /* \"contracts/FundMe.sol\":207:2019  contract FundMe {\r... */\n  dataSize(sub_0)\n  dup1\n  dataOffset(sub_0)\n  0x00\n  codecopy\n  0x00\n  return\nstop\n\nsub_0: assembly {\n        /* \"contracts/FundMe.sol\":207:2019  contract FundMe {\r... */\n      mstore(0x40, 0x80)\n      jumpi(tag_1, lt(calldatasize, 0x04))\n      shr(0xe0, calldataload(0x00))\n      dup1\n      0x6e5b6b28\n      gt\n      tag_9\n      jumpi\n      dup1\n      0x6e5b6b28\n      eq\n      tag_5\n      jumpi\n      dup1\n      0x8da5cb5b\n      eq\n      tag_6\n      jumpi\n      dup1\n      0x98d5fdca\n      eq\n      tag_7\n      jumpi\n      dup1\n      0xb60d4288\n      eq\n      tag_8\n      jumpi\n      jump(tag_1)\n    tag_9:\n      dup1\n      0x3ccfd60b\n      eq\n      tag_2\n      jumpi\n      dup1\n      0x3e47d6f3\n      eq\n      tag_3\n      jumpi\n      dup1\n      0x427c0c7f\n      eq\n      tag_4\n      jumpi\n    tag_1:\n      0x00\n      dup1\n      revert\n        /* \"contracts/FundMe.sol\":1668:2016  function withdraw() payable onlyOwner public {\r... */\n    tag_2:\n      tag_10\n      tag_11\n      jump\t// in\n    tag_10:\n      stop\n        /* \"contracts/FundMe.sol\":232:288  mapping(address => uint256) public addressToAmountFunded */\n    tag_3:\n      callvalue\n      dup1\n      iszero\n      tag_12\n      jumpi\n      0x00\n      dup1\n      revert\n    tag_12:\n      pop\n      tag_13\n      0x04\n      dup1\n      calldatasize\n      sub\n      dup2\n      add\n      swap1\n      tag_14\n      swap2\n      swap1\n      tag_15\n      jump\t// in\n    tag_14:\n      tag_16\n      jump\t// in\n    tag_13:\n      mload(0x40)\n      tag_17\n      swap2\n      swap1\n      tag_18\n      jump\t// in\n    tag_17:\n      mload(0x40)\n      dup1\n      swap2\n      sub\n      swap1\n      return\n        /* \"contracts/FundMe.sol\":347:402  uint256 public totalFundsRaised = address(this).balance */\n    tag_4:\n      callvalue\n      dup1\n      iszero\n      tag_19\n      jumpi\n      0x00\n      dup1\n      revert\n    tag_19:\n      pop\n      tag_20\n      tag_21\n      jump\t// in\n    tag_20:\n      mload(0x40)\n      tag_22\n      swap2\n      swap1\n      tag_18\n      jump\t// in\n    tag_22:\n      mload(0x40)\n      dup1\n      swap2\n      sub\n      swap1\n      return\n        /* \"contracts/FundMe.sol\":1240:1474  function getConversionRate(uint256 ethAmount) public view returns(uint256){\r... */\n    tag_5:\n      callvalue\n      dup1\n      iszero\n      tag_23\n      jumpi\n      0x00\n      dup1\n      revert\n    tag_23:\n      pop\n      tag_24\n      0x04\n      dup1\n      calldatasize\n      sub\n      dup2\n      add\n      swap1\n      tag_25\n      swap2\n      swap1\n      tag_26\n      jump\t// in\n    tag_25:\n      tag_27\n      jump\t// in\n    tag_24:\n      mload(0x40)\n      tag_28\n      swap2\n      swap1\n      tag_18\n      jump\t// in\n    tag_28:\n      mload(0x40)\n      dup1\n      swap2\n      sub\n      swap1\n      return\n        /* \"contracts/FundMe.sol\":320:340  address public owner */\n    tag_6:\n      callvalue\n      dup1\n      iszero\n      tag_29\n      jumpi\n      0x00\n      dup1\n      revert\n    tag_29:\n      pop\n      tag_30\n      tag_31\n      jump\t// in\n    tag_30:\n      mload(0x40)\n      tag_32\n      swap2\n      swap1\n      tag_33\n      jump\t// in\n    tag_32:\n      mload(0x40)\n      dup1\n      swap2\n      sub\n      swap1\n      return\n        /* \"contracts/FundMe.sol\":898:1230  function getPrice() public view returns(uint256){\r... */\n    tag_7:\n      callvalue\n      dup1\n      iszero\n      tag_34\n      jumpi\n      0x00\n      dup1\n      revert\n    tag_34:\n      pop\n      tag_35\n      tag_36\n      jump\t// in\n    tag_35:\n      mload(0x40)\n      tag_37\n      swap2\n      swap1\n      tag_18\n      jump\t// in\n    tag_37:\n      mload(0x40)\n      dup1\n      swap2\n      sub\n      swap1\n      return\n        /* \"contracts/FundMe.sol\":479:890  function fund() public payable {\r... */\n    tag_8:\n      tag_38\n      tag_39\n      jump\t// in\n    tag_38:\n      stop\n        /* \"contracts/FundMe.sol\":1668:2016  function withdraw() payable onlyOwner public {\r... */\n    tag_11:\n        /* \"contracts/FundMe.sol\":1534:1539  owner */\n      0x02\n      0x00\n      swap1\n      sload\n      swap1\n      0x0100\n      exp\n      swap1\n      div\n      0xffffffffffffffffffffffffffffffffffffffff\n      and\n        /* \"contracts/FundMe.sol\":1520:1539  msg.sender == owner */\n      0xffffffffffffffffffffffffffffffffffffffff\n      and\n        /* \"contracts/FundMe.sol\":1520:1530  msg.sender */\n      caller\n        /* \"contracts/FundMe.sol\":1520:1539  msg.sender == owner */\n      0xffffffffffffffffffffffffffffffffffffffff\n      and\n      eq\n        /* \"contracts/FundMe.sol\":1512:1540  require(msg.sender == owner) */\n      tag_41\n      jumpi\n      0x00\n      dup1\n      revert\n    tag_41:\n        /* \"contracts/FundMe.sol\":1732:1742  msg.sender */\n      caller\n        /* \"contracts/FundMe.sol\":1724:1752  payable(msg.sender).transfer */\n      0xffffffffffffffffffffffffffffffffffffffff\n      and\n        /* \"contracts/FundMe.sol\":1724:1775  payable(msg.sender).transfer(address(this).balance) */\n      0x08fc\n        /* \"contracts/FundMe.sol\":1753:1774  address(this).balance */\n      selfbalance\n        /* \"contracts/FundMe.sol\":1724:1775  payable(msg.sender).transfer(address(this).balance) */\n      swap1\n      dup2\n      iszero\n      mul\n      swap1\n      mload(0x40)\n      0x00\n      mload(0x40)\n      dup1\n      dup4\n      sub\n      dup2\n      dup6\n      dup9\n      dup9\n      call\n      swap4\n      pop\n      pop\n      pop\n      pop\n      iszero\n      dup1\n      iszero\n      tag_44\n      jumpi\n      returndatasize\n      0x00\n      dup1\n      returndatacopy\n      revert(0x00, returndatasize)\n    tag_44:\n      pop\n        /* \"contracts/FundMe.sol\":1791:1810  uint256 funderIndex */\n      0x00\n        /* \"contracts/FundMe.sol\":1786:1972  for (uint256 funderIndex = 0; funderIndex < funders.length; funderIndex++){\r... */\n    tag_45:\n        /* \"contracts/FundMe.sol\":1830:1837  funders */\n      0x01\n        /* \"contracts/FundMe.sol\":1830:1844  funders.length */\n      dup1\n      sload\n      swap1\n      pop\n        /* \"contracts/FundMe.sol\":1816:1827  funderIndex */\n      dup2\n        /* \"contracts/FundMe.sol\":1816:1844  funderIndex < funders.length */\n      lt\n        /* \"contracts/FundMe.sol\":1786:1972  for (uint256 funderIndex = 0; funderIndex < funders.length; funderIndex++){\r... */\n      iszero\n      tag_46\n      jumpi\n        /* \"contracts/FundMe.sol\":1875:1889  address funder */\n      0x00\n        /* \"contracts/FundMe.sol\":1892:1899  funders */\n      0x01\n        /* \"contracts/FundMe.sol\":1900:1911  funderIndex */\n      dup3\n        /* \"contracts/FundMe.sol\":1892:1912  funders[funderIndex] */\n      dup2\n      sload\n      dup2\n      lt\n      tag_48\n      jumpi\n      mstore(0x00, 0x4e487b7100000000000000000000000000000000000000000000000000000000)\n      mstore(0x04, 0x32)\n      revert(0x00, 0x24)\n    tag_48:\n      swap1\n      0x00\n      mstore\n      keccak256(0x00, 0x20)\n      add\n      0x00\n      swap1\n      sload\n      swap1\n      0x0100\n      exp\n      swap1\n      div\n      0xffffffffffffffffffffffffffffffffffffffff\n      and\n        /* \"contracts/FundMe.sol\":1875:1912  address funder = funders[funderIndex] */\n      swap1\n      pop\n        /* \"contracts/FundMe.sol\":1959:1960  0 */\n      0x00\n        /* \"contracts/FundMe.sol\":1927:1948  addressToAmountFunded */\n      dup1\n        /* \"contracts/FundMe.sol\":1927:1956  addressToAmountFunded[funder] */\n      0x00\n        /* \"contracts/FundMe.sol\":1949:1955  funder */\n      dup4\n        /* \"contracts/FundMe.sol\":1927:1956  addressToAmountFunded[funder] */\n      0xffffffffffffffffffffffffffffffffffffffff\n      and\n      0xffffffffffffffffffffffffffffffffffffffff\n      and\n      dup2\n      mstore\n      0x20\n      add\n      swap1\n      dup2\n      mstore\n      0x20\n      add\n      0x00\n      keccak256\n        /* \"contracts/FundMe.sol\":1927:1960  addressToAmountFunded[funder] = 0 */\n      dup2\n      swap1\n      sstore\n      pop\n        /* \"contracts/FundMe.sol\":1786:1972  for (uint256 funderIndex = 0; funderIndex < funders.length; funderIndex++){\r... */\n      pop\n        /* \"contracts/FundMe.sol\":1846:1859  funderIndex++ */\n      dup1\n      dup1\n      tag_50\n      swap1\n      tag_51\n      jump\t// in\n    tag_50:\n      swap2\n      pop\n      pop\n        /* \"contracts/FundMe.sol\":1786:1972  for (uint256 funderIndex = 0; funderIndex < funders.length; funderIndex++){\r... */\n      jump(tag_45)\n    tag_46:\n      pop\n        /* \"contracts/FundMe.sol\":2006:2007  0 */\n      0x00\n        /* \"contracts/FundMe.sol\":1992:2008  new address[](0) */\n      0xffffffffffffffff\n      dup2\n      gt\n      iszero\n      tag_52\n      jumpi\n      mstore(0x00, 0x4e487b7100000000000000000000000000000000000000000000000000000000)\n      mstore(0x04, 0x41)\n      revert(0x00, 0x24)\n    tag_52:\n      mload(0x40)\n      swap1\n      dup1\n      dup3\n      mstore\n      dup1\n      0x20\n      mul\n      0x20\n      add\n      dup3\n      add\n      0x40\n      mstore\n      dup1\n      iszero\n      tag_53\n      jumpi\n      dup2\n      0x20\n      add\n      0x20\n      dup3\n      mul\n      dup1\n      calldatasize\n      dup4\n      calldatacopy\n      dup1\n      dup3\n      add\n      swap2\n      pop\n      pop\n      swap1\n      pop\n    tag_53:\n      pop\n        /* \"contracts/FundMe.sol\":1982:1989  funders */\n      0x01\n        /* \"contracts/FundMe.sol\":1982:2008  funders = new address[](0) */\n      swap1\n      dup1\n      mload\n      swap1\n      0x20\n      add\n      swap1\n      tag_54\n      swap3\n      swap2\n      swap1\n      tag_55\n      jump\t// in\n    tag_54:\n      pop\n        /* \"contracts/FundMe.sol\":1668:2016  function withdraw() payable onlyOwner public {\r... */\n      jump\t// out\n        /* \"contracts/FundMe.sol\":232:288  mapping(address => uint256) public addressToAmountFunded */\n    tag_16:\n      mstore(0x20, 0x00)\n      dup1\n      0x00\n      mstore\n      keccak256(0x00, 0x40)\n      0x00\n      swap2\n      pop\n      swap1\n      pop\n      sload\n      dup2\n      jump\t// out\n        /* \"contracts/FundMe.sol\":347:402  uint256 public totalFundsRaised = address(this).balance */\n    tag_21:\n      sload(0x03)\n      dup2\n      jump\t// out\n        /* \"contracts/FundMe.sol\":1240:1474  function getConversionRate(uint256 ethAmount) public view returns(uint256){\r... */\n    tag_27:\n        /* \"contracts/FundMe.sol\":1306:1313  uint256 */\n      0x00\n        /* \"contracts/FundMe.sol\":1325:1341  uint256 ethPrice */\n      dup1\n        /* \"contracts/FundMe.sol\":1344:1354  getPrice() */\n      tag_57\n        /* \"contracts/FundMe.sol\":1344:1352  getPrice */\n      tag_36\n        /* \"contracts/FundMe.sol\":1344:1354  getPrice() */\n      jump\t// in\n    tag_57:\n        /* \"contracts/FundMe.sol\":1325:1354  uint256 ethPrice = getPrice() */\n      swap1\n      pop\n        /* \"contracts/FundMe.sol\":1365:1387  uint256 ethAmountInUsd */\n      0x00\n        /* \"contracts/FundMe.sol\":1415:1434  1000000000000000000 */\n      0x0de0b6b3a7640000\n        /* \"contracts/FundMe.sol\":1402:1411  ethAmount */\n      dup5\n        /* \"contracts/FundMe.sol\":1391:1399  ethPrice */\n      dup4\n        /* \"contracts/FundMe.sol\":1391:1411  ethPrice * ethAmount */\n      tag_58\n      swap2\n      swap1\n      tag_59\n      jump\t// in\n    tag_58:\n        /* \"contracts/FundMe.sol\":1390:1434  (ethPrice * ethAmount) / 1000000000000000000 */\n      tag_60\n      swap2\n      swap1\n      tag_61\n      jump\t// in\n    tag_60:\n        /* \"contracts/FundMe.sol\":1365:1434  uint256 ethAmountInUsd = (ethPrice * ethAmount) / 1000000000000000000 */\n      swap1\n      pop\n        /* \"contracts/FundMe.sol\":1452:1466  ethAmountInUsd */\n      dup1\n        /* \"contracts/FundMe.sol\":1445:1466  return ethAmountInUsd */\n      swap3\n      pop\n      pop\n      pop\n        /* \"contracts/FundMe.sol\":1240:1474  function getConversionRate(uint256 ethAmount) public view returns(uint256){\r... */\n      swap2\n      swap1\n      pop\n      jump\t// out\n        /* \"contracts/FundMe.sol\":320:340  address public owner */\n    tag_31:\n      0x02\n      0x00\n      swap1\n      sload\n      swap1\n      0x0100\n      exp\n      swap1\n      div\n      0xffffffffffffffffffffffffffffffffffffffff\n      and\n      dup2\n      jump\t// out\n        /* \"contracts/FundMe.sol\":898:1230  function getPrice() public view returns(uint256){\r... */\n    tag_36:\n        /* \"contracts/FundMe.sol\":938:945  uint256 */\n      0x00\n        /* \"contracts/FundMe.sol\":957:988  AggregatorV3Interface priceFeed */\n      dup1\n        /* \"contracts/FundMe.sol\":1013:1055  0x8A753747A1Fa494EC906cE90E9f37563A8AF630e */\n      0x8a753747a1fa494ec906ce90e9f37563a8af630e\n        /* \"contracts/FundMe.sol\":957:1056  AggregatorV3Interface priceFeed = AggregatorV3Interface(0x8A753747A1Fa494EC906cE90E9f37563A8AF630e) */\n      swap1\n      pop\n        /* \"contracts/FundMe.sol\":1069:1082  int256 answer */\n      0x00\n        /* \"contracts/FundMe.sol\":1087:1096  priceFeed */\n      dup2\n        /* \"contracts/FundMe.sol\":1087:1112  priceFeed.latestRoundData */\n      0xffffffffffffffffffffffffffffffffffffffff\n      and\n      0xfeaf968c\n        /* \"contracts/FundMe.sol\":1087:1114  priceFeed.latestRoundData() */\n      mload(0x40)\n      dup2\n      0xffffffff\n      and\n      0xe0\n      shl\n      dup2\n      mstore\n      0x04\n      add\n      0xa0\n      mload(0x40)\n      dup1\n      dup4\n      sub\n      dup2\n      dup7\n      dup1\n      extcodesize\n      iszero\n      dup1\n      iszero\n      tag_63\n      jumpi\n      0x00\n      dup1\n      revert\n    tag_63:\n      pop\n      gas\n      staticcall\n      iszero\n      dup1\n      iszero\n      tag_65\n      jumpi\n      returndatasize\n      0x00\n      dup1\n      returndatacopy\n      revert(0x00, returndatasize)\n    tag_65:\n      pop\n      pop\n      pop\n      pop\n      mload(0x40)\n      returndatasize\n      not(0x1f)\n      0x1f\n      dup3\n      add\n      and\n      dup3\n      add\n      dup1\n      0x40\n      mstore\n      pop\n      dup2\n      add\n      swap1\n      tag_66\n      swap2\n      swap1\n      tag_67\n      jump\t// in\n    tag_66:\n        /* \"contracts/FundMe.sol\":1067:1114  (,int256 answer,,,)=priceFeed.latestRoundData() */\n      pop\n      pop\n      pop\n      swap2\n      pop\n      pop\n        /* \"contracts/FundMe.sol\":1149:1160  10000000000 */\n      0x02540be400\n        /* \"contracts/FundMe.sol\":1140:1146  answer */\n      dup2\n        /* \"contracts/FundMe.sol\":1140:1160  answer * 10000000000 */\n      tag_68\n      swap2\n      swap1\n      tag_69\n      jump\t// in\n    tag_68:\n        /* \"contracts/FundMe.sol\":1125:1161  return uint256(answer * 10000000000) */\n      swap3\n      pop\n      pop\n      pop\n        /* \"contracts/FundMe.sol\":898:1230  function getPrice() public view returns(uint256){\r... */\n      swap1\n      jump\t// out\n        /* \"contracts/FundMe.sol\":479:890  function fund() public payable {\r... */\n    tag_39:\n        /* \"contracts/FundMe.sol\":541:555  uint256 minUSD */\n      0x00\n        /* \"contracts/FundMe.sol\":558:570  50 * 10 **18 */\n      0x02b5e3af16b1880000\n        /* \"contracts/FundMe.sol\":541:570  uint256 minUSD = 50 * 10 **18 */\n      swap1\n      pop\n        /* \"contracts/FundMe.sol\":621:627  minUSD */\n      dup1\n        /* \"contracts/FundMe.sol\":589:617  getConversionRate(msg.value) */\n      tag_71\n        /* \"contracts/FundMe.sol\":607:616  msg.value */\n      callvalue\n        /* \"contracts/FundMe.sol\":589:606  getConversionRate */\n      tag_27\n        /* \"contracts/FundMe.sol\":589:617  getConversionRate(msg.value) */\n      jump\t// in\n    tag_71:\n        /* \"contracts/FundMe.sol\":589:627  getConversionRate(msg.value) >= minUSD */\n      lt\n      iszero\n        /* \"contracts/FundMe.sol\":581:686  require(getConversionRate(msg.value) >= minUSD, \"Currently not accepting donations valued below $50 USD\") */\n      tag_72\n      jumpi\n      mload(0x40)\n      0x08c379a000000000000000000000000000000000000000000000000000000000\n      dup2\n      mstore\n      0x04\n      add\n      tag_73\n      swap1\n      tag_74\n      jump\t// in\n    tag_73:\n      mload(0x40)\n      dup1\n      swap2\n      sub\n      swap1\n      revert\n    tag_72:\n        /* \"contracts/FundMe.sol\":734:743  msg.value */\n      callvalue\n        /* \"contracts/FundMe.sol\":697:718  addressToAmountFunded */\n      0x00\n        /* \"contracts/FundMe.sol\":697:730  addressToAmountFunded[msg.sender] */\n      dup1\n        /* \"contracts/FundMe.sol\":719:729  msg.sender */\n      caller\n        /* \"contracts/FundMe.sol\":697:730  addressToAmountFunded[msg.sender] */\n      0xffffffffffffffffffffffffffffffffffffffff\n      and\n      0xffffffffffffffffffffffffffffffffffffffff\n      and\n      dup2\n      mstore\n      0x20\n      add\n      swap1\n      dup2\n      mstore\n      0x20\n      add\n      0x00\n      keccak256\n      0x00\n        /* \"contracts/FundMe.sol\":697:743  addressToAmountFunded[msg.sender] += msg.value */\n      dup3\n      dup3\n      sload\n      tag_75\n      swap2\n      swap1\n      tag_76\n      jump\t// in\n    tag_75:\n      swap3\n      pop\n      pop\n      dup2\n      swap1\n      sstore\n      pop\n        /* \"contracts/FundMe.sol\":754:761  funders */\n      0x01\n        /* \"contracts/FundMe.sol\":767:777  msg.sender */\n      caller\n        /* \"contracts/FundMe.sol\":754:778  funders.push(msg.sender) */\n      swap1\n      dup1\n      0x01\n      dup2\n      sload\n      add\n      dup1\n      dup3\n      sstore\n      dup1\n      swap2\n      pop\n      pop\n      0x01\n      swap1\n      sub\n      swap1\n      0x00\n      mstore\n      keccak256(0x00, 0x20)\n      add\n      0x00\n      swap1\n      swap2\n      swap1\n      swap2\n      swap1\n      swap2\n      0x0100\n      exp\n      dup2\n      sload\n      dup2\n      0xffffffffffffffffffffffffffffffffffffffff\n      mul\n      not\n      and\n      swap1\n      dup4\n      0xffffffffffffffffffffffffffffffffffffffff\n      and\n      mul\n      or\n      swap1\n      sstore\n      pop\n        /* \"contracts/FundMe.sol\":809:818  msg.value */\n      callvalue\n        /* \"contracts/FundMe.sol\":789:805  totalFundsRaised */\n      0x03\n      0x00\n        /* \"contracts/FundMe.sol\":789:818  totalFundsRaised += msg.value */\n      dup3\n      dup3\n      sload\n      tag_78\n      swap2\n      swap1\n      tag_76\n      jump\t// in\n    tag_78:\n      swap3\n      pop\n      pop\n      dup2\n      swap1\n      sstore\n      pop\n        /* \"contracts/FundMe.sol\":479:890  function fund() public payable {\r... */\n      pop\n      jump\t// out\n    tag_55:\n      dup3\n      dup1\n      sload\n      dup3\n      dup3\n      sstore\n      swap1\n      0x00\n      mstore\n      keccak256(0x00, 0x20)\n      swap1\n      dup2\n      add\n      swap3\n      dup3\n      iszero\n      tag_79\n      jumpi\n      swap2\n      0x20\n      mul\n      dup3\n      add\n    tag_80:\n      dup3\n      dup2\n      gt\n      iszero\n      tag_81\n      jumpi\n      dup3\n      mload\n      dup3\n      exp(0x0100, 0x00)\n      dup2\n      sload\n      dup2\n      0xffffffffffffffffffffffffffffffffffffffff\n      mul\n      not\n      and\n      swap1\n      dup4\n      0xffffffffffffffffffffffffffffffffffffffff\n      and\n      mul\n      or\n      swap1\n      sstore\n      pop\n      swap2\n      0x20\n      add\n      swap2\n      swap1\n      0x01\n      add\n      swap1\n      jump(tag_80)\n    tag_81:\n    tag_79:\n      pop\n      swap1\n      pop\n      tag_82\n      swap2\n      swap1\n      tag_83\n      jump\t// in\n    tag_82:\n      pop\n      swap1\n      jump\t// out\n    tag_83:\n    tag_84:\n      dup1\n      dup3\n      gt\n      iszero\n      tag_85\n      jumpi\n      0x00\n      dup2\n      0x00\n      swap1\n      sstore\n      pop\n      0x01\n      add\n      jump(tag_84)\n    tag_85:\n      pop\n      swap1\n      jump\t// out\n        /* \"#utility.yul\":7:146   */\n    tag_87:\n      0x00\n        /* \"#utility.yul\":91:97   */\n      dup2\n        /* \"#utility.yul\":78:98   */\n      calldataload\n        /* \"#utility.yul\":69:98   */\n      swap1\n      pop\n        /* \"#utility.yul\":107:140   */\n      tag_89\n        /* \"#utility.yul\":134:139   */\n      dup2\n        /* \"#utility.yul\":107:140   */\n      tag_90\n      jump\t// in\n    tag_89:\n        /* \"#utility.yul\":59:146   */\n      swap3\n      swap2\n      pop\n      pop\n      jump\t// out\n        /* \"#utility.yul\":152:293   */\n    tag_91:\n      0x00\n        /* \"#utility.yul\":239:245   */\n      dup2\n        /* \"#utility.yul\":233:246   */\n      mload\n        /* \"#utility.yul\":224:246   */\n      swap1\n      pop\n        /* \"#utility.yul\":255:287   */\n      tag_93\n        /* \"#utility.yul\":281:286   */\n      dup2\n        /* \"#utility.yul\":255:287   */\n      tag_94\n      jump\t// in\n    tag_93:\n        /* \"#utility.yul\":214:293   */\n      swap3\n      swap2\n      pop\n      pop\n      jump\t// out\n        /* \"#utility.yul\":299:438   */\n    tag_95:\n      0x00\n        /* \"#utility.yul\":383:389   */\n      dup2\n        /* \"#utility.yul\":370:390   */\n      calldataload\n        /* \"#utility.yul\":361:390   */\n      swap1\n      pop\n        /* \"#utility.yul\":399:432   */\n      tag_97\n        /* \"#utility.yul\":426:431   */\n      dup2\n        /* \"#utility.yul\":399:432   */\n      tag_98\n      jump\t// in\n    tag_97:\n        /* \"#utility.yul\":351:438   */\n      swap3\n      swap2\n      pop\n      pop\n      jump\t// out\n        /* \"#utility.yul\":444:587   */\n    tag_99:\n      0x00\n        /* \"#utility.yul\":532:538   */\n      dup2\n        /* \"#utility.yul\":526:539   */\n      mload\n        /* \"#utility.yul\":517:539   */\n      swap1\n      pop\n        /* \"#utility.yul\":548:581   */\n      tag_101\n        /* \"#utility.yul\":575:580   */\n      dup2\n        /* \"#utility.yul\":548:581   */\n      tag_98\n      jump\t// in\n    tag_101:\n        /* \"#utility.yul\":507:587   */\n      swap3\n      swap2\n      pop\n      pop\n      jump\t// out\n        /* \"#utility.yul\":593:734   */\n    tag_102:\n      0x00\n        /* \"#utility.yul\":680:686   */\n      dup2\n        /* \"#utility.yul\":674:687   */\n      mload\n        /* \"#utility.yul\":665:687   */\n      swap1\n      pop\n        /* \"#utility.yul\":696:728   */\n      tag_104\n        /* \"#utility.yul\":722:727   */\n      dup2\n        /* \"#utility.yul\":696:728   */\n      tag_105\n      jump\t// in\n    tag_104:\n        /* \"#utility.yul\":655:734   */\n      swap3\n      swap2\n      pop\n      pop\n      jump\t// out\n        /* \"#utility.yul\":740:1002   */\n    tag_15:\n      0x00\n        /* \"#utility.yul\":848:850   */\n      0x20\n        /* \"#utility.yul\":836:845   */\n      dup3\n        /* \"#utility.yul\":827:834   */\n      dup5\n        /* \"#utility.yul\":823:846   */\n      sub\n        /* \"#utility.yul\":819:851   */\n      slt\n        /* \"#utility.yul\":816:818   */\n      iszero\n      tag_107\n      jumpi\n        /* \"#utility.yul\":864:865   */\n      0x00\n        /* \"#utility.yul\":861:862   */\n      dup1\n        /* \"#utility.yul\":854:866   */\n      revert\n        /* \"#utility.yul\":816:818   */\n    tag_107:\n        /* \"#utility.yul\":907:908   */\n      0x00\n        /* \"#utility.yul\":932:985   */\n      tag_108\n        /* \"#utility.yul\":977:984   */\n      dup5\n        /* \"#utility.yul\":968:974   */\n      dup3\n        /* \"#utility.yul\":957:966   */\n      dup6\n        /* \"#utility.yul\":953:975   */\n      add\n        /* \"#utility.yul\":932:985   */\n      tag_87\n      jump\t// in\n    tag_108:\n        /* \"#utility.yul\":922:985   */\n      swap2\n      pop\n        /* \"#utility.yul\":878:995   */\n      pop\n        /* \"#utility.yul\":806:1002   */\n      swap3\n      swap2\n      pop\n      pop\n      jump\t// out\n        /* \"#utility.yul\":1008:1270   */\n    tag_26:\n      0x00\n        /* \"#utility.yul\":1116:1118   */\n      0x20\n        /* \"#utility.yul\":1104:1113   */\n      dup3\n        /* \"#utility.yul\":1095:1102   */\n      dup5\n        /* \"#utility.yul\":1091:1114   */\n      sub\n        /* \"#utility.yul\":1087:1119   */\n      slt\n        /* \"#utility.yul\":1084:1086   */\n      iszero\n      tag_110\n      jumpi\n        /* \"#utility.yul\":1132:1133   */\n      0x00\n        /* \"#utility.yul\":1129:1130   */\n      dup1\n        /* \"#utility.yul\":1122:1134   */\n      revert\n        /* \"#utility.yul\":1084:1086   */\n    tag_110:\n        /* \"#utility.yul\":1175:1176   */\n      0x00\n        /* \"#utility.yul\":1200:1253   */\n      tag_111\n        /* \"#utility.yul\":1245:1252   */\n      dup5\n        /* \"#utility.yul\":1236:1242   */\n      dup3\n        /* \"#utility.yul\":1225:1234   */\n      dup6\n        /* \"#utility.yul\":1221:1243   */\n      add\n        /* \"#utility.yul\":1200:1253   */\n      tag_95\n      jump\t// in\n    tag_111:\n        /* \"#utility.yul\":1190:1253   */\n      swap2\n      pop\n        /* \"#utility.yul\":1146:1263   */\n      pop\n        /* \"#utility.yul\":1074:1270   */\n      swap3\n      swap2\n      pop\n      pop\n      jump\t// out\n        /* \"#utility.yul\":1276:2180   */\n    tag_67:\n      0x00\n      dup1\n      0x00\n      dup1\n      0x00\n        /* \"#utility.yul\":1460:1463   */\n      0xa0\n        /* \"#utility.yul\":1448:1457   */\n      dup7\n        /* \"#utility.yul\":1439:1446   */\n      dup9\n        /* \"#utility.yul\":1435:1458   */\n      sub\n        /* \"#utility.yul\":1431:1464   */\n      slt\n        /* \"#utility.yul\":1428:1430   */\n      iszero\n      tag_113\n      jumpi\n        /* \"#utility.yul\":1477:1478   */\n      0x00\n        /* \"#utility.yul\":1474:1475   */\n      dup1\n        /* \"#utility.yul\":1467:1479   */\n      revert\n        /* \"#utility.yul\":1428:1430   */\n    tag_113:\n        /* \"#utility.yul\":1520:1521   */\n      0x00\n        /* \"#utility.yul\":1545:1608   */\n      tag_114\n        /* \"#utility.yul\":1600:1607   */\n      dup9\n        /* \"#utility.yul\":1591:1597   */\n      dup3\n        /* \"#utility.yul\":1580:1589   */\n      dup10\n        /* \"#utility.yul\":1576:1598   */\n      add\n        /* \"#utility.yul\":1545:1608   */\n      tag_102\n      jump\t// in\n    tag_114:\n        /* \"#utility.yul\":1535:1608   */\n      swap6\n      pop\n        /* \"#utility.yul\":1491:1618   */\n      pop\n        /* \"#utility.yul\":1657:1659   */\n      0x20\n        /* \"#utility.yul\":1683:1746   */\n      tag_115\n        /* \"#utility.yul\":1738:1745   */\n      dup9\n        /* \"#utility.yul\":1729:1735   */\n      dup3\n        /* \"#utility.yul\":1718:1727   */\n      dup10\n        /* \"#utility.yul\":1714:1736   */\n      add\n        /* \"#utility.yul\":1683:1746   */\n      tag_91\n      jump\t// in\n    tag_115:\n        /* \"#utility.yul\":1673:1746   */\n      swap5\n      pop\n        /* \"#utility.yul\":1628:1756   */\n      pop\n        /* \"#utility.yul\":1795:1797   */\n      0x40\n        /* \"#utility.yul\":1821:1885   */\n      tag_116\n        /* \"#utility.yul\":1877:1884   */\n      dup9\n        /* \"#utility.yul\":1868:1874   */\n      dup3\n        /* \"#utility.yul\":1857:1866   */\n      dup10\n        /* \"#utility.yul\":1853:1875   */\n      add\n        /* \"#utility.yul\":1821:1885   */\n      tag_99\n      jump\t// in\n    tag_116:\n        /* \"#utility.yul\":1811:1885   */\n      swap4\n      pop\n        /* \"#utility.yul\":1766:1895   */\n      pop\n        /* \"#utility.yul\":1934:1936   */\n      0x60\n        /* \"#utility.yul\":1960:2024   */\n      tag_117\n        /* \"#utility.yul\":2016:2023   */\n      dup9\n        /* \"#utility.yul\":2007:2013   */\n      dup3\n        /* \"#utility.yul\":1996:2005   */\n      dup10\n        /* \"#utility.yul\":1992:2014   */\n      add\n        /* \"#utility.yul\":1960:2024   */\n      tag_99\n      jump\t// in\n    tag_117:\n        /* \"#utility.yul\":1950:2024   */\n      swap3\n      pop\n        /* \"#utility.yul\":1905:2034   */\n      pop\n        /* \"#utility.yul\":2073:2076   */\n      0x80\n        /* \"#utility.yul\":2100:2163   */\n      tag_118\n        /* \"#utility.yul\":2155:2162   */\n      dup9\n        /* \"#utility.yul\":2146:2152   */\n      dup3\n        /* \"#utility.yul\":2135:2144   */\n      dup10\n        /* \"#utility.yul\":2131:2153   */\n      add\n        /* \"#utility.yul\":2100:2163   */\n      tag_102\n      jump\t// in\n    tag_118:\n        /* \"#utility.yul\":2090:2163   */\n      swap2\n      pop\n        /* \"#utility.yul\":2044:2173   */\n      pop\n        /* \"#utility.yul\":1418:2180   */\n      swap3\n      swap6\n      pop\n      swap3\n      swap6\n      swap1\n      swap4\n      pop\n      jump\t// out\n        /* \"#utility.yul\":2186:2304   */\n    tag_119:\n        /* \"#utility.yul\":2273:2297   */\n      tag_121\n        /* \"#utility.yul\":2291:2296   */\n      dup2\n        /* \"#utility.yul\":2273:2297   */\n      tag_122\n      jump\t// in\n    tag_121:\n        /* \"#utility.yul\":2268:2271   */\n      dup3\n        /* \"#utility.yul\":2261:2298   */\n      mstore\n        /* \"#utility.yul\":2251:2304   */\n      pop\n      pop\n      jump\t// out\n        /* \"#utility.yul\":2310:2676   */\n    tag_123:\n      0x00\n        /* \"#utility.yul\":2473:2540   */\n      tag_125\n        /* \"#utility.yul\":2537:2539   */\n      0x36\n        /* \"#utility.yul\":2532:2535   */\n      dup4\n        /* \"#utility.yul\":2473:2540   */\n      tag_126\n      jump\t// in\n    tag_125:\n        /* \"#utility.yul\":2466:2540   */\n      swap2\n      pop\n        /* \"#utility.yul\":2549:2642   */\n      tag_127\n        /* \"#utility.yul\":2638:2641   */\n      dup3\n        /* \"#utility.yul\":2549:2642   */\n      tag_128\n      jump\t// in\n    tag_127:\n        /* \"#utility.yul\":2667:2669   */\n      0x40\n        /* \"#utility.yul\":2662:2665   */\n      dup3\n        /* \"#utility.yul\":2658:2670   */\n      add\n        /* \"#utility.yul\":2651:2670   */\n      swap1\n      pop\n        /* \"#utility.yul\":2456:2676   */\n      swap2\n      swap1\n      pop\n      jump\t// out\n        /* \"#utility.yul\":2682:2800   */\n    tag_129:\n        /* \"#utility.yul\":2769:2793   */\n      tag_131\n        /* \"#utility.yul\":2787:2792   */\n      dup2\n        /* \"#utility.yul\":2769:2793   */\n      tag_132\n      jump\t// in\n    tag_131:\n        /* \"#utility.yul\":2764:2767   */\n      dup3\n        /* \"#utility.yul\":2757:2794   */\n      mstore\n        /* \"#utility.yul\":2747:2800   */\n      pop\n      pop\n      jump\t// out\n        /* \"#utility.yul\":2806:3028   */\n    tag_33:\n      0x00\n        /* \"#utility.yul\":2937:2939   */\n      0x20\n        /* \"#utility.yul\":2926:2935   */\n      dup3\n        /* \"#utility.yul\":2922:2940   */\n      add\n        /* \"#utility.yul\":2914:2940   */\n      swap1\n      pop\n        /* \"#utility.yul\":2950:3021   */\n      tag_134\n        /* \"#utility.yul\":3018:3019   */\n      0x00\n        /* \"#utility.yul\":3007:3016   */\n      dup4\n        /* \"#utility.yul\":3003:3020   */\n      add\n        /* \"#utility.yul\":2994:3000   */\n      dup5\n        /* \"#utility.yul\":2950:3021   */\n      tag_119\n      jump\t// in\n    tag_134:\n        /* \"#utility.yul\":2904:3028   */\n      swap3\n      swap2\n      pop\n      pop\n      jump\t// out\n        /* \"#utility.yul\":3034:3453   */\n    tag_74:\n      0x00\n        /* \"#utility.yul\":3238:3240   */\n      0x20\n        /* \"#utility.yul\":3227:3236   */\n      dup3\n        /* \"#utility.yul\":3223:3241   */\n      add\n        /* \"#utility.yul\":3215:3241   */\n      swap1\n      pop\n        /* \"#utility.yul\":3287:3296   */\n      dup2\n        /* \"#utility.yul\":3281:3285   */\n      dup2\n        /* \"#utility.yul\":3277:3297   */\n      sub\n        /* \"#utility.yul\":3273:3274   */\n      0x00\n        /* \"#utility.yul\":3262:3271   */\n      dup4\n        /* \"#utility.yul\":3258:3275   */\n      add\n        /* \"#utility.yul\":3251:3298   */\n      mstore\n        /* \"#utility.yul\":3315:3446   */\n      tag_136\n        /* \"#utility.yul\":3441:3445   */\n      dup2\n        /* \"#utility.yul\":3315:3446   */\n      tag_123\n      jump\t// in\n    tag_136:\n        /* \"#utility.yul\":3307:3446   */\n      swap1\n      pop\n        /* \"#utility.yul\":3205:3453   */\n      swap2\n      swap1\n      pop\n      jump\t// out\n        /* \"#utility.yul\":3459:3681   */\n    tag_18:\n      0x00\n        /* \"#utility.yul\":3590:3592   */\n      0x20\n        /* \"#utility.yul\":3579:3588   */\n      dup3\n        /* \"#utility.yul\":3575:3593   */\n      add\n        /* \"#utility.yul\":3567:3593   */\n      swap1\n      pop\n        /* \"#utility.yul\":3603:3674   */\n      tag_138\n        /* \"#utility.yul\":3671:3672   */\n      0x00\n        /* \"#utility.yul\":3660:3669   */\n      dup4\n        /* \"#utility.yul\":3656:3673   */\n      add\n        /* \"#utility.yul\":3647:3653   */\n      dup5\n        /* \"#utility.yul\":3603:3674   */\n      tag_129\n      jump\t// in\n    tag_138:\n        /* \"#utility.yul\":3557:3681   */\n      swap3\n      swap2\n      pop\n      pop\n      jump\t// out\n        /* \"#utility.yul\":3687:3856   */\n    tag_126:\n      0x00\n        /* \"#utility.yul\":3805:3811   */\n      dup3\n        /* \"#utility.yul\":3800:3803   */\n      dup3\n        /* \"#utility.yul\":3793:3812   */\n      mstore\n        /* \"#utility.yul\":3845:3849   */\n      0x20\n        /* \"#utility.yul\":3840:3843   */\n      dup3\n        /* \"#utility.yul\":3836:3850   */\n      add\n        /* \"#utility.yul\":3821:3850   */\n      swap1\n      pop\n        /* \"#utility.yul\":3783:3856   */\n      swap3\n      swap2\n      pop\n      pop\n      jump\t// out\n        /* \"#utility.yul\":3862:4167   */\n    tag_76:\n      0x00\n        /* \"#utility.yul\":3921:3941   */\n      tag_141\n        /* \"#utility.yul\":3939:3940   */\n      dup3\n        /* \"#utility.yul\":3921:3941   */\n      tag_132\n      jump\t// in\n    tag_141:\n        /* \"#utility.yul\":3916:3941   */\n      swap2\n      pop\n        /* \"#utility.yul\":3955:3975   */\n      tag_142\n        /* \"#utility.yul\":3973:3974   */\n      dup4\n        /* \"#utility.yul\":3955:3975   */\n      tag_132\n      jump\t// in\n    tag_142:\n        /* \"#utility.yul\":3950:3975   */\n      swap3\n      pop\n        /* \"#utility.yul\":4109:4110   */\n      dup3\n        /* \"#utility.yul\":4041:4107   */\n      0xffffffffffffffffffffffffffffffffffffffffffffffffffffffffffffffff\n        /* \"#utility.yul\":4037:4111   */\n      sub\n        /* \"#utility.yul\":4034:4035   */\n      dup3\n        /* \"#utility.yul\":4031:4112   */\n      gt\n        /* \"#utility.yul\":4028:4030   */\n      iszero\n      tag_143\n      jumpi\n        /* \"#utility.yul\":4115:4133   */\n      tag_144\n      tag_145\n      jump\t// in\n    tag_144:\n        /* \"#utility.yul\":4028:4030   */\n    tag_143:\n        /* \"#utility.yul\":4159:4160   */\n      dup3\n        /* \"#utility.yul\":4156:4157   */\n      dup3\n        /* \"#utility.yul\":4152:4161   */\n      add\n        /* \"#utility.yul\":4145:4161   */\n      swap1\n      pop\n        /* \"#utility.yul\":3906:4167   */\n      swap3\n      swap2\n      pop\n      pop\n      jump\t// out\n        /* \"#utility.yul\":4173:4358   */\n    tag_61:\n      0x00\n        /* \"#utility.yul\":4230:4250   */\n      tag_147\n        /* \"#utility.yul\":4248:4249   */\n      dup3\n        /* \"#utility.yul\":4230:4250   */\n      tag_132\n      jump\t// in\n    tag_147:\n        /* \"#utility.yul\":4225:4250   */\n      swap2\n      pop\n        /* \"#utility.yul\":4264:4284   */\n      tag_148\n        /* \"#utility.yul\":4282:4283   */\n      dup4\n        /* \"#utility.yul\":4264:4284   */\n      tag_132\n      jump\t// in\n    tag_148:\n        /* \"#utility.yul\":4259:4284   */\n      swap3\n      pop\n        /* \"#utility.yul\":4303:4304   */\n      dup3\n        /* \"#utility.yul\":4293:4295   */\n      tag_149\n      jumpi\n        /* \"#utility.yul\":4308:4326   */\n      tag_150\n      tag_151\n      jump\t// in\n    tag_150:\n        /* \"#utility.yul\":4293:4295   */\n    tag_149:\n        /* \"#utility.yul\":4350:4351   */\n      dup3\n        /* \"#utility.yul\":4347:4348   */\n      dup3\n        /* \"#utility.yul\":4343:4352   */\n      div\n        /* \"#utility.yul\":4338:4352   */\n      swap1\n      pop\n        /* \"#utility.yul\":4215:4358   */\n      swap3\n      swap2\n      pop\n      pop\n      jump\t// out\n        /* \"#utility.yul\":4364:5355   */\n    tag_69:\n      0x00\n        /* \"#utility.yul\":4426:4445   */\n      tag_153\n        /* \"#utility.yul\":4443:4444   */\n      dup3\n        /* \"#utility.yul\":4426:4445   */\n      tag_154\n      jump\t// in\n    tag_153:\n        /* \"#utility.yul\":4421:4445   */\n      swap2\n      pop\n        /* \"#utility.yul\":4459:4478   */\n      tag_155\n        /* \"#utility.yul\":4476:4477   */\n      dup4\n        /* \"#utility.yul\":4459:4478   */\n      tag_154\n      jump\t// in\n    tag_155:\n        /* \"#utility.yul\":4454:4478   */\n      swap3\n      pop\n        /* \"#utility.yul\":4660:4661   */\n      dup3\n        /* \"#utility.yul\":4592:4658   */\n      0x7fffffffffffffffffffffffffffffffffffffffffffffffffffffffffffffff\n        /* \"#utility.yul\":4588:4662   */\n      div\n        /* \"#utility.yul\":4585:4586   */\n      dup3\n        /* \"#utility.yul\":4582:4663   */\n      gt\n        /* \"#utility.yul\":4577:4578   */\n      0x00\n        /* \"#utility.yul\":4574:4575   */\n      dup5\n        /* \"#utility.yul\":4570:4579   */\n      sgt\n        /* \"#utility.yul\":4566:4567   */\n      0x00\n        /* \"#utility.yul\":4563:4564   */\n      dup5\n        /* \"#utility.yul\":4559:4568   */\n      sgt\n        /* \"#utility.yul\":4555:4580   */\n      and\n        /* \"#utility.yul\":4551:4664   */\n      and\n        /* \"#utility.yul\":4548:4550   */\n      iszero\n      tag_156\n      jumpi\n        /* \"#utility.yul\":4667:4685   */\n      tag_157\n      tag_145\n      jump\t// in\n    tag_157:\n        /* \"#utility.yul\":4548:4550   */\n    tag_156:\n        /* \"#utility.yul\":4871:4872   */\n      dup2\n        /* \"#utility.yul\":4803:4869   */\n      0x8000000000000000000000000000000000000000000000000000000000000000\n        /* \"#utility.yul\":4798:4873   */\n      sdiv\n        /* \"#utility.yul\":4795:4796   */\n      dup4\n        /* \"#utility.yul\":4791:4874   */\n      slt\n        /* \"#utility.yul\":4786:4787   */\n      0x00\n        /* \"#utility.yul\":4783:4784   */\n      dup5\n        /* \"#utility.yul\":4779:4788   */\n      slt\n        /* \"#utility.yul\":4775:4776   */\n      0x00\n        /* \"#utility.yul\":4772:4773   */\n      dup5\n        /* \"#utility.yul\":4768:4777   */\n      sgt\n        /* \"#utility.yul\":4764:4789   */\n      and\n        /* \"#utility.yul\":4760:4875   */\n      and\n        /* \"#utility.yul\":4757:4759   */\n      iszero\n      tag_158\n      jumpi\n        /* \"#utility.yul\":4878:4896   */\n      tag_159\n      tag_145\n      jump\t// in\n    tag_159:\n        /* \"#utility.yul\":4757:4759   */\n    tag_158:\n        /* \"#utility.yul\":5082:5083   */\n      dup3\n        /* \"#utility.yul\":5014:5080   */\n      0x8000000000000000000000000000000000000000000000000000000000000000\n        /* \"#utility.yul\":5009:5084   */\n      sdiv\n        /* \"#utility.yul\":5006:5007   */\n      dup3\n        /* \"#utility.yul\":5002:5085   */\n      slt\n        /* \"#utility.yul\":4997:4998   */\n      0x00\n        /* \"#utility.yul\":4994:4995   */\n      dup5\n        /* \"#utility.yul\":4990:4999   */\n      sgt\n        /* \"#utility.yul\":4986:4987   */\n      0x00\n        /* \"#utility.yul\":4983:4984   */\n      dup5\n        /* \"#utility.yul\":4979:4988   */\n      slt\n        /* \"#utility.yul\":4975:5000   */\n      and\n        /* \"#utility.yul\":4971:5086   */\n      and\n        /* \"#utility.yul\":4968:4970   */\n      iszero\n      tag_160\n      jumpi\n        /* \"#utility.yul\":5089:5107   */\n      tag_161\n      tag_145\n      jump\t// in\n    tag_161:\n        /* \"#utility.yul\":4968:4970   */\n    tag_160:\n        /* \"#utility.yul\":5292:5293   */\n      dup3\n        /* \"#utility.yul\":5224:5290   */\n      0x7fffffffffffffffffffffffffffffffffffffffffffffffffffffffffffffff\n        /* \"#utility.yul\":5219:5294   */\n      sdiv\n        /* \"#utility.yul\":5216:5217   */\n      dup3\n        /* \"#utility.yul\":5212:5295   */\n      slt\n        /* \"#utility.yul\":5207:5208   */\n      0x00\n        /* \"#utility.yul\":5204:5205   */\n      dup5\n        /* \"#utility.yul\":5200:5209   */\n      slt\n        /* \"#utility.yul\":5196:5197   */\n      0x00\n        /* \"#utility.yul\":5193:5194   */\n      dup5\n        /* \"#utility.yul\":5189:5198   */\n      slt\n        /* \"#utility.yul\":5185:5210   */\n      and\n        /* \"#utility.yul\":5181:5296   */\n      and\n        /* \"#utility.yul\":5178:5180   */\n      iszero\n      tag_162\n      jumpi\n        /* \"#utility.yul\":5299:5317   */\n      tag_163\n      tag_145\n      jump\t// in\n    tag_163:\n        /* \"#utility.yul\":5178:5180   */\n    tag_162:\n        /* \"#utility.yul\":5347:5348   */\n      dup3\n        /* \"#utility.yul\":5344:5345   */\n      dup3\n        /* \"#utility.yul\":5340:5349   */\n      mul\n        /* \"#utility.yul\":5329:5349   */\n      swap1\n      pop\n        /* \"#utility.yul\":4411:5355   */\n      swap3\n      swap2\n      pop\n      pop\n      jump\t// out\n        /* \"#utility.yul\":5361:5709   */\n    tag_59:\n      0x00\n        /* \"#utility.yul\":5424:5444   */\n      tag_165\n        /* \"#utility.yul\":5442:5443   */\n      dup3\n        /* \"#utility.yul\":5424:5444   */\n      tag_132\n      jump\t// in\n    tag_165:\n        /* \"#utility.yul\":5419:5444   */\n      swap2\n      pop\n        /* \"#utility.yul\":5458:5478   */\n      tag_166\n        /* \"#utility.yul\":5476:5477   */\n      dup4\n        /* \"#utility.yul\":5458:5478   */\n      tag_132\n      jump\t// in\n    tag_166:\n        /* \"#utility.yul\":5453:5478   */\n      swap3\n      pop\n        /* \"#utility.yul\":5646:5647   */\n      dup2\n        /* \"#utility.yul\":5578:5644   */\n      0xffffffffffffffffffffffffffffffffffffffffffffffffffffffffffffffff\n        /* \"#utility.yul\":5574:5648   */\n      div\n        /* \"#utility.yul\":5571:5572   */\n      dup4\n        /* \"#utility.yul\":5568:5649   */\n      gt\n        /* \"#utility.yul\":5563:5564   */\n      dup3\n        /* \"#utility.yul\":5556:5565   */\n      iszero\n        /* \"#utility.yul\":5549:5566   */\n      iszero\n        /* \"#utility.yul\":5545:5650   */\n      and\n        /* \"#utility.yul\":5542:5544   */\n      iszero\n      tag_167\n      jumpi\n        /* \"#utility.yul\":5653:5671   */\n      tag_168\n      tag_145\n      jump\t// in\n    tag_168:\n        /* \"#utility.yul\":5542:5544   */\n    tag_167:\n        /* \"#utility.yul\":5701:5702   */\n      dup3\n        /* \"#utility.yul\":5698:5699   */\n      dup3\n        /* \"#utility.yul\":5694:5703   */\n      mul\n        /* \"#utility.yul\":5683:5703   */\n      swap1\n      pop\n        /* \"#utility.yul\":5409:5709   */\n      swap3\n      swap2\n      pop\n      pop\n      jump\t// out\n        /* \"#utility.yul\":5715:5811   */\n    tag_122:\n      0x00\n        /* \"#utility.yul\":5781:5805   */\n      tag_170\n        /* \"#utility.yul\":5799:5804   */\n      dup3\n        /* \"#utility.yul\":5781:5805   */\n      tag_171\n      jump\t// in\n    tag_170:\n        /* \"#utility.yul\":5770:5805   */\n      swap1\n      pop\n        /* \"#utility.yul\":5760:5811   */\n      swap2\n      swap1\n      pop\n      jump\t// out\n        /* \"#utility.yul\":5817:5893   */\n    tag_154:\n      0x00\n        /* \"#utility.yul\":5882:5887   */\n      dup2\n        /* \"#utility.yul\":5871:5887   */\n      swap1\n      pop\n        /* \"#utility.yul\":5861:5893   */\n      swap2\n      swap1\n      pop\n      jump\t// out\n        /* \"#utility.yul\":5899:6025   */\n    tag_171:\n      0x00\n        /* \"#utility.yul\":5976:6018   */\n      0xffffffffffffffffffffffffffffffffffffffff\n        /* \"#utility.yul\":5969:5974   */\n      dup3\n        /* \"#utility.yul\":5965:6019   */\n      and\n        /* \"#utility.yul\":5954:6019   */\n      swap1\n      pop\n        /* \"#utility.yul\":5944:6025   */\n      swap2\n      swap1\n      pop\n      jump\t// out\n        /* \"#utility.yul\":6031:6108   */\n    tag_132:\n      0x00\n        /* \"#utility.yul\":6097:6102   */\n      dup2\n        /* \"#utility.yul\":6086:6102   */\n      swap1\n      pop\n        /* \"#utility.yul\":6076:6108   */\n      swap2\n      swap1\n      pop\n      jump\t// out\n        /* \"#utility.yul\":6114:6219   */\n    tag_175:\n      0x00\n        /* \"#utility.yul\":6190:6212   */\n      0xffffffffffffffffffff\n        /* \"#utility.yul\":6183:6188   */\n      dup3\n        /* \"#utility.yul\":6179:6213   */\n      and\n        /* \"#utility.yul\":6168:6213   */\n      swap1\n      pop\n        /* \"#utility.yul\":6158:6219   */\n      swap2\n      swap1\n      pop\n      jump\t// out\n        /* \"#utility.yul\":6225:6458   */\n    tag_51:\n      0x00\n        /* \"#utility.yul\":6287:6311   */\n      tag_178\n        /* \"#utility.yul\":6305:6310   */\n      dup3\n        /* \"#utility.yul\":6287:6311   */\n      tag_132\n      jump\t// in\n    tag_178:\n        /* \"#utility.yul\":6278:6311   */\n      swap2\n      pop\n        /* \"#utility.yul\":6333:6399   */\n      0xffffffffffffffffffffffffffffffffffffffffffffffffffffffffffffffff\n        /* \"#utility.yul\":6326:6331   */\n      dup3\n        /* \"#utility.yul\":6323:6400   */\n      eq\n        /* \"#utility.yul\":6320:6322   */\n      iszero\n      tag_179\n      jumpi\n        /* \"#utility.yul\":6403:6421   */\n      tag_180\n      tag_145\n      jump\t// in\n    tag_180:\n        /* \"#utility.yul\":6320:6322   */\n    tag_179:\n        /* \"#utility.yul\":6450:6451   */\n      0x01\n        /* \"#utility.yul\":6443:6448   */\n      dup3\n        /* \"#utility.yul\":6439:6452   */\n      add\n        /* \"#utility.yul\":6432:6452   */\n      swap1\n      pop\n        /* \"#utility.yul\":6268:6458   */\n      swap2\n      swap1\n      pop\n      jump\t// out\n        /* \"#utility.yul\":6464:6644   */\n    tag_145:\n        /* \"#utility.yul\":6512:6589   */\n      0x4e487b7100000000000000000000000000000000000000000000000000000000\n        /* \"#utility.yul\":6509:6510   */\n      0x00\n        /* \"#utility.yul\":6502:6590   */\n      mstore\n        /* \"#utility.yul\":6609:6613   */\n      0x11\n        /* \"#utility.yul\":6606:6607   */\n      0x04\n        /* \"#utility.yul\":6599:6614   */\n      mstore\n        /* \"#utility.yul\":6633:6637   */\n      0x24\n        /* \"#utility.yul\":6630:6631   */\n      0x00\n        /* \"#utility.yul\":6623:6638   */\n      revert\n        /* \"#utility.yul\":6650:6830   */\n    tag_151:\n        /* \"#utility.yul\":6698:6775   */\n      0x4e487b7100000000000000000000000000000000000000000000000000000000\n        /* \"#utility.yul\":6695:6696   */\n      0x00\n        /* \"#utility.yul\":6688:6776   */\n      mstore\n        /* \"#utility.yul\":6795:6799   */\n      0x12\n        /* \"#utility.yul\":6792:6793   */\n      0x04\n        /* \"#utility.yul\":6785:6800   */\n      mstore\n        /* \"#utility.yul\":6819:6823   */\n      0x24\n        /* \"#utility.yul\":6816:6817   */\n      0x00\n        /* \"#utility.yul\":6809:6824   */\n      revert\n        /* \"#utility.yul\":6836:7077   */\n    tag_128:\n        /* \"#utility.yul\":6976:7010   */\n      0x43757272656e746c79206e6f7420616363657074696e6720646f6e6174696f6e\n        /* \"#utility.yul\":6972:6973   */\n      0x00\n        /* \"#utility.yul\":6964:6970   */\n      dup3\n        /* \"#utility.yul\":6960:6974   */\n      add\n        /* \"#utility.yul\":6953:7011   */\n      mstore\n        /* \"#utility.yul\":7045:7069   */\n      0x732076616c7565642062656c6f77202435302055534400000000000000000000\n        /* \"#utility.yul\":7040:7042   */\n      0x20\n        /* \"#utility.yul\":7032:7038   */\n      dup3\n        /* \"#utility.yul\":7028:7043   */\n      add\n        /* \"#utility.yul\":7021:7070   */\n      mstore\n        /* \"#utility.yul\":6942:7077   */\n      pop\n      jump\t// out\n        /* \"#utility.yul\":7083:7205   */\n    tag_90:\n        /* \"#utility.yul\":7156:7180   */\n      tag_185\n        /* \"#utility.yul\":7174:7179   */\n      dup2\n        /* \"#utility.yul\":7156:7180   */\n      tag_122\n      jump\t// in\n    tag_185:\n        /* \"#utility.yul\":7149:7154   */\n      dup2\n        /* \"#utility.yul\":7146:7181   */\n      eq\n        /* \"#utility.yul\":7136:7138   */\n      tag_186\n      jumpi\n        /* \"#utility.yul\":7195:7196   */\n      0x00\n        /* \"#utility.yul\":7192:7193   */\n      dup1\n        /* \"#utility.yul\":7185:7197   */\n      revert\n        /* \"#utility.yul\":7136:7138   */\n    tag_186:\n        /* \"#utility.yul\":7126:7205   */\n      pop\n      jump\t// out\n        /* \"#utility.yul\":7211:7331   */\n    tag_94:\n        /* \"#utility.yul\":7283:7306   */\n      tag_188\n        /* \"#utility.yul\":7300:7305   */\n      dup2\n        /* \"#utility.yul\":7283:7306   */\n      tag_154\n      jump\t// in\n    tag_188:\n        /* \"#utility.yul\":7276:7281   */\n      dup2\n        /* \"#utility.yul\":7273:7307   */\n      eq\n        /* \"#utility.yul\":7263:7265   */\n      tag_189\n      jumpi\n        /* \"#utility.yul\":7321:7322   */\n      0x00\n        /* \"#utility.yul\":7318:7319   */\n      dup1\n        /* \"#utility.yul\":7311:7323   */\n      revert\n        /* \"#utility.yul\":7263:7265   */\n    tag_189:\n        /* \"#utility.yul\":7253:7331   */\n      pop\n      jump\t// out\n        /* \"#utility.yul\":7337:7459   */\n    tag_98:\n        /* \"#utility.yul\":7410:7434   */\n      tag_191\n        /* \"#utility.yul\":7428:7433   */\n      dup2\n        /* \"#utility.yul\":7410:7434   */\n      tag_132\n      jump\t// in\n    tag_191:\n        /* \"#utility.yul\":7403:7408   */\n      dup2\n        /* \"#utility.yul\":7400:7435   */\n      eq\n        /* \"#utility.yul\":7390:7392   */\n      tag_192\n      jumpi\n        /* \"#utility.yul\":7449:7450   */\n      0x00\n        /* \"#utility.yul\":7446:7447   */\n      dup1\n        /* \"#utility.yul\":7439:7451   */\n      revert\n        /* \"#utility.yul\":7390:7392   */\n    tag_192:\n        /* \"#utility.yul\":7380:7459   */\n      pop\n      jump\t// out\n        /* \"#utility.yul\":7465:7585   */\n    tag_105:\n        /* \"#utility.yul\":7537:7560   */\n      tag_194\n        /* \"#utility.yul\":7554:7559   */\n      dup2\n        /* \"#utility.yul\":7537:7560   */\n      tag_175\n      jump\t// in\n    tag_194:\n        /* \"#utility.yul\":7530:7535   */\n      dup2\n        /* \"#utility.yul\":7527:7561   */\n      eq\n        /* \"#utility.yul\":7517:7519   */\n      tag_195\n      jumpi\n        /* \"#utility.yul\":7575:7576   */\n      0x00\n        /* \"#utility.yul\":7572:7573   */\n      dup1\n        /* \"#utility.yul\":7565:7577   */\n      revert\n        /* \"#utility.yul\":7517:7519   */\n    tag_195:\n        /* \"#utility.yul\":7507:7585   */\n      pop\n      jump\t// out\n\n    auxdata: 0xa2646970667358221220e27fc73421587d1c2822e23278030a66975d01de808b1d1ca389fe82444adf9364736f6c63430008010033\n}\n",
				"bytecode": {
					"linkReferences": {},
					"object": "60806040524760035534801561001457600080fd5b5033600260006101000a81548173ffffffffffffffffffffffffffffffffffffffff021916908373ffffffffffffffffffffffffffffffffffffffff160217905550610c3f806100656000396000f3fe6080604052600436106100705760003560e01c80636e5b6b281161004e5780636e5b6b28146100e75780638da5cb5b1461012457806398d5fdca1461014f578063b60d42881461017a57610070565b80633ccfd60b146100755780633e47d6f31461007f578063427c0c7f146100bc575b600080fd5b61007d610184565b005b34801561008b57600080fd5b506100a660048036038101906100a191906106f2565b61037f565b6040516100b39190610837565b60405180910390f35b3480156100c857600080fd5b506100d1610397565b6040516100de9190610837565b60405180910390f35b3480156100f357600080fd5b5061010e6004803603810190610109919061071b565b61039d565b60405161011b9190610837565b60405180910390f35b34801561013057600080fd5b506101396103d7565b60405161014691906107fc565b60405180910390f35b34801561015b57600080fd5b506101646103fd565b6040516101719190610837565b60405180910390f35b6101826104b5565b005b600260009054906101000a900473ffffffffffffffffffffffffffffffffffffffff1673ffffffffffffffffffffffffffffffffffffffff163373ffffffffffffffffffffffffffffffffffffffff16146101de57600080fd5b3373ffffffffffffffffffffffffffffffffffffffff166108fc479081150290604051600060405180830381858888f19350505050158015610224573d6000803e3d6000fd5b5060005b6001805490508110156102f657600060018281548110610271577f4e487b7100000000000000000000000000000000000000000000000000000000600052603260045260246000fd5b9060005260206000200160009054906101000a900473ffffffffffffffffffffffffffffffffffffffff16905060008060008373ffffffffffffffffffffffffffffffffffffffff1673ffffffffffffffffffffffffffffffffffffffff168152602001908152602001600020819055505080806102ee90610ab7565b915050610228565b50600067ffffffffffffffff811115610338577f4e487b7100000000000000000000000000000000000000000000000000000000600052604160045260246000fd5b6040519080825280602002602001820160405280156103665781602001602082028036833780820191505090505b506001908051906020019061037c9291906105e2565b50565b60006020528060005260406000206000915090505481565b60035481565b6000806103a86103fd565b90506000670de0b6b3a764000084836103c19190610a01565b6103cb91906108b9565b90508092505050919050565b600260009054906101000a900473ffffffffffffffffffffffffffffffffffffffff1681565b600080738a753747a1fa494ec906ce90e9f37563a8af630e905060008173ffffffffffffffffffffffffffffffffffffffff1663feaf968c6040518163ffffffff1660e01b815260040160a06040518083038186803b15801561045f57600080fd5b505afa158015610473573d6000803e3d6000fd5b505050506040513d601f19601f820116820180604052508101906104979190610744565b5050509150506402540be400816104ae91906108ea565b9250505090565b60006802b5e3af16b18800009050806104cd3461039d565b101561050e576040517f08c379a000000000000000000000000000000000000000000000000000000000815260040161050590610817565b60405180910390fd5b346000803373ffffffffffffffffffffffffffffffffffffffff1673ffffffffffffffffffffffffffffffffffffffff168152602001908152602001600020600082825461055c9190610863565b925050819055506001339080600181540180825580915050600190039060005260206000200160009091909190916101000a81548173ffffffffffffffffffffffffffffffffffffffff021916908373ffffffffffffffffffffffffffffffffffffffff16021790555034600360008282546105d89190610863565b9250508190555050565b82805482825590600052602060002090810192821561065b579160200282015b8281111561065a5782518260006101000a81548173ffffffffffffffffffffffffffffffffffffffff021916908373ffffffffffffffffffffffffffffffffffffffff16021790555091602001919060010190610602565b5b509050610668919061066c565b5090565b5b8082111561068557600081600090555060010161066d565b5090565b60008135905061069881610bad565b92915050565b6000815190506106ad81610bc4565b92915050565b6000813590506106c281610bdb565b92915050565b6000815190506106d781610bdb565b92915050565b6000815190506106ec81610bf2565b92915050565b60006020828403121561070457600080fd5b600061071284828501610689565b91505092915050565b60006020828403121561072d57600080fd5b600061073b848285016106b3565b91505092915050565b600080600080600060a0868803121561075c57600080fd5b600061076a888289016106dd565b955050602061077b8882890161069e565b945050604061078c888289016106c8565b935050606061079d888289016106c8565b92505060806107ae888289016106dd565b9150509295509295909350565b6107c481610a5b565b82525050565b60006107d7603683610852565b91506107e282610b5e565b604082019050919050565b6107f681610a97565b82525050565b600060208201905061081160008301846107bb565b92915050565b60006020820190508181036000830152610830816107ca565b9050919050565b600060208201905061084c60008301846107ed565b92915050565b600082825260208201905092915050565b600061086e82610a97565b915061087983610a97565b9250827fffffffffffffffffffffffffffffffffffffffffffffffffffffffffffffffff038211156108ae576108ad610b00565b5b828201905092915050565b60006108c482610a97565b91506108cf83610a97565b9250826108df576108de610b2f565b5b828204905092915050565b60006108f582610a6d565b915061090083610a6d565b9250827f7fffffffffffffffffffffffffffffffffffffffffffffffffffffffffffffff048211600084136000841316161561093f5761093e610b00565b5b817f8000000000000000000000000000000000000000000000000000000000000000058312600084126000841316161561097c5761097b610b00565b5b827f800000000000000000000000000000000000000000000000000000000000000005821260008413600084121616156109b9576109b8610b00565b5b827f7fffffffffffffffffffffffffffffffffffffffffffffffffffffffffffffff05821260008412600084121616156109f6576109f5610b00565b5b828202905092915050565b6000610a0c82610a97565b9150610a1783610a97565b9250817fffffffffffffffffffffffffffffffffffffffffffffffffffffffffffffffff0483118215151615610a5057610a4f610b00565b5b828202905092915050565b6000610a6682610a77565b9050919050565b6000819050919050565b600073ffffffffffffffffffffffffffffffffffffffff82169050919050565b6000819050919050565b600069ffffffffffffffffffff82169050919050565b6000610ac282610a97565b91507fffffffffffffffffffffffffffffffffffffffffffffffffffffffffffffffff821415610af557610af4610b00565b5b600182019050919050565b7f4e487b7100000000000000000000000000000000000000000000000000000000600052601160045260246000fd5b7f4e487b7100000000000000000000000000000000000000000000000000000000600052601260045260246000fd5b7f43757272656e746c79206e6f7420616363657074696e6720646f6e6174696f6e60008201527f732076616c7565642062656c6f77202435302055534400000000000000000000602082015250565b610bb681610a5b565b8114610bc157600080fd5b50565b610bcd81610a6d565b8114610bd857600080fd5b50565b610be481610a97565b8114610bef57600080fd5b50565b610bfb81610aa1565b8114610c0657600080fd5b5056fea2646970667358221220e27fc73421587d1c2822e23278030a66975d01de808b1d1ca389fe82444adf9364736f6c63430008010033",
					"opcodes": "PUSH1 0x80 PUSH1 0x40 MSTORE SELFBALANCE PUSH1 0x3 SSTORE CALLVALUE DUP1 ISZERO PUSH2 0x14 JUMPI PUSH1 0x0 DUP1 REVERT JUMPDEST POP CALLER PUSH1 0x2 PUSH1 0x0 PUSH2 0x100 EXP DUP2 SLOAD DUP2 PUSH20 0xFFFFFFFFFFFFFFFFFFFFFFFFFFFFFFFFFFFFFFFF MUL NOT AND SWAP1 DUP4 PUSH20 0xFFFFFFFFFFFFFFFFFFFFFFFFFFFFFFFFFFFFFFFF AND MUL OR SWAP1 SSTORE POP PUSH2 0xC3F DUP1 PUSH2 0x65 PUSH1 0x0 CODECOPY PUSH1 0x0 RETURN INVALID PUSH1 0x80 PUSH1 0x40 MSTORE PUSH1 0x4 CALLDATASIZE LT PUSH2 0x70 JUMPI PUSH1 0x0 CALLDATALOAD PUSH1 0xE0 SHR DUP1 PUSH4 0x6E5B6B28 GT PUSH2 0x4E JUMPI DUP1 PUSH4 0x6E5B6B28 EQ PUSH2 0xE7 JUMPI DUP1 PUSH4 0x8DA5CB5B EQ PUSH2 0x124 JUMPI DUP1 PUSH4 0x98D5FDCA EQ PUSH2 0x14F JUMPI DUP1 PUSH4 0xB60D4288 EQ PUSH2 0x17A JUMPI PUSH2 0x70 JUMP JUMPDEST DUP1 PUSH4 0x3CCFD60B EQ PUSH2 0x75 JUMPI DUP1 PUSH4 0x3E47D6F3 EQ PUSH2 0x7F JUMPI DUP1 PUSH4 0x427C0C7F EQ PUSH2 0xBC JUMPI JUMPDEST PUSH1 0x0 DUP1 REVERT JUMPDEST PUSH2 0x7D PUSH2 0x184 JUMP JUMPDEST STOP JUMPDEST CALLVALUE DUP1 ISZERO PUSH2 0x8B JUMPI PUSH1 0x0 DUP1 REVERT JUMPDEST POP PUSH2 0xA6 PUSH1 0x4 DUP1 CALLDATASIZE SUB DUP2 ADD SWAP1 PUSH2 0xA1 SWAP2 SWAP1 PUSH2 0x6F2 JUMP JUMPDEST PUSH2 0x37F JUMP JUMPDEST PUSH1 0x40 MLOAD PUSH2 0xB3 SWAP2 SWAP1 PUSH2 0x837 JUMP JUMPDEST PUSH1 0x40 MLOAD DUP1 SWAP2 SUB SWAP1 RETURN JUMPDEST CALLVALUE DUP1 ISZERO PUSH2 0xC8 JUMPI PUSH1 0x0 DUP1 REVERT JUMPDEST POP PUSH2 0xD1 PUSH2 0x397 JUMP JUMPDEST PUSH1 0x40 MLOAD PUSH2 0xDE SWAP2 SWAP1 PUSH2 0x837 JUMP JUMPDEST PUSH1 0x40 MLOAD DUP1 SWAP2 SUB SWAP1 RETURN JUMPDEST CALLVALUE DUP1 ISZERO PUSH2 0xF3 JUMPI PUSH1 0x0 DUP1 REVERT JUMPDEST POP PUSH2 0x10E PUSH1 0x4 DUP1 CALLDATASIZE SUB DUP2 ADD SWAP1 PUSH2 0x109 SWAP2 SWAP1 PUSH2 0x71B JUMP JUMPDEST PUSH2 0x39D JUMP JUMPDEST PUSH1 0x40 MLOAD PUSH2 0x11B SWAP2 SWAP1 PUSH2 0x837 JUMP JUMPDEST PUSH1 0x40 MLOAD DUP1 SWAP2 SUB SWAP1 RETURN JUMPDEST CALLVALUE DUP1 ISZERO PUSH2 0x130 JUMPI PUSH1 0x0 DUP1 REVERT JUMPDEST POP PUSH2 0x139 PUSH2 0x3D7 JUMP JUMPDEST PUSH1 0x40 MLOAD PUSH2 0x146 SWAP2 SWAP1 PUSH2 0x7FC JUMP JUMPDEST PUSH1 0x40 MLOAD DUP1 SWAP2 SUB SWAP1 RETURN JUMPDEST CALLVALUE DUP1 ISZERO PUSH2 0x15B JUMPI PUSH1 0x0 DUP1 REVERT JUMPDEST POP PUSH2 0x164 PUSH2 0x3FD JUMP JUMPDEST PUSH1 0x40 MLOAD PUSH2 0x171 SWAP2 SWAP1 PUSH2 0x837 JUMP JUMPDEST PUSH1 0x40 MLOAD DUP1 SWAP2 SUB SWAP1 RETURN JUMPDEST PUSH2 0x182 PUSH2 0x4B5 JUMP JUMPDEST STOP JUMPDEST PUSH1 0x2 PUSH1 0x0 SWAP1 SLOAD SWAP1 PUSH2 0x100 EXP SWAP1 DIV PUSH20 0xFFFFFFFFFFFFFFFFFFFFFFFFFFFFFFFFFFFFFFFF AND PUSH20 0xFFFFFFFFFFFFFFFFFFFFFFFFFFFFFFFFFFFFFFFF AND CALLER PUSH20 0xFFFFFFFFFFFFFFFFFFFFFFFFFFFFFFFFFFFFFFFF AND EQ PUSH2 0x1DE JUMPI PUSH1 0x0 DUP1 REVERT JUMPDEST CALLER PUSH20 0xFFFFFFFFFFFFFFFFFFFFFFFFFFFFFFFFFFFFFFFF AND PUSH2 0x8FC SELFBALANCE SWAP1 DUP2 ISZERO MUL SWAP1 PUSH1 0x40 MLOAD PUSH1 0x0 PUSH1 0x40 MLOAD DUP1 DUP4 SUB DUP2 DUP6 DUP9 DUP9 CALL SWAP4 POP POP POP POP ISZERO DUP1 ISZERO PUSH2 0x224 JUMPI RETURNDATASIZE PUSH1 0x0 DUP1 RETURNDATACOPY RETURNDATASIZE PUSH1 0x0 REVERT JUMPDEST POP PUSH1 0x0 JUMPDEST PUSH1 0x1 DUP1 SLOAD SWAP1 POP DUP2 LT ISZERO PUSH2 0x2F6 JUMPI PUSH1 0x0 PUSH1 0x1 DUP3 DUP2 SLOAD DUP2 LT PUSH2 0x271 JUMPI PUSH32 0x4E487B7100000000000000000000000000000000000000000000000000000000 PUSH1 0x0 MSTORE PUSH1 0x32 PUSH1 0x4 MSTORE PUSH1 0x24 PUSH1 0x0 REVERT JUMPDEST SWAP1 PUSH1 0x0 MSTORE PUSH1 0x20 PUSH1 0x0 KECCAK256 ADD PUSH1 0x0 SWAP1 SLOAD SWAP1 PUSH2 0x100 EXP SWAP1 DIV PUSH20 0xFFFFFFFFFFFFFFFFFFFFFFFFFFFFFFFFFFFFFFFF AND SWAP1 POP PUSH1 0x0 DUP1 PUSH1 0x0 DUP4 PUSH20 0xFFFFFFFFFFFFFFFFFFFFFFFFFFFFFFFFFFFFFFFF AND PUSH20 0xFFFFFFFFFFFFFFFFFFFFFFFFFFFFFFFFFFFFFFFF AND DUP2 MSTORE PUSH1 0x20 ADD SWAP1 DUP2 MSTORE PUSH1 0x20 ADD PUSH1 0x0 KECCAK256 DUP2 SWAP1 SSTORE POP POP DUP1 DUP1 PUSH2 0x2EE SWAP1 PUSH2 0xAB7 JUMP JUMPDEST SWAP2 POP POP PUSH2 0x228 JUMP JUMPDEST POP PUSH1 0x0 PUSH8 0xFFFFFFFFFFFFFFFF DUP2 GT ISZERO PUSH2 0x338 JUMPI PUSH32 0x4E487B7100000000000000000000000000000000000000000000000000000000 PUSH1 0x0 MSTORE PUSH1 0x41 PUSH1 0x4 MSTORE PUSH1 0x24 PUSH1 0x0 REVERT JUMPDEST PUSH1 0x40 MLOAD SWAP1 DUP1 DUP3 MSTORE DUP1 PUSH1 0x20 MUL PUSH1 0x20 ADD DUP3 ADD PUSH1 0x40 MSTORE DUP1 ISZERO PUSH2 0x366 JUMPI DUP2 PUSH1 0x20 ADD PUSH1 0x20 DUP3 MUL DUP1 CALLDATASIZE DUP4 CALLDATACOPY DUP1 DUP3 ADD SWAP2 POP POP SWAP1 POP JUMPDEST POP PUSH1 0x1 SWAP1 DUP1 MLOAD SWAP1 PUSH1 0x20 ADD SWAP1 PUSH2 0x37C SWAP3 SWAP2 SWAP1 PUSH2 0x5E2 JUMP JUMPDEST POP JUMP JUMPDEST PUSH1 0x0 PUSH1 0x20 MSTORE DUP1 PUSH1 0x0 MSTORE PUSH1 0x40 PUSH1 0x0 KECCAK256 PUSH1 0x0 SWAP2 POP SWAP1 POP SLOAD DUP2 JUMP JUMPDEST PUSH1 0x3 SLOAD DUP2 JUMP JUMPDEST PUSH1 0x0 DUP1 PUSH2 0x3A8 PUSH2 0x3FD JUMP JUMPDEST SWAP1 POP PUSH1 0x0 PUSH8 0xDE0B6B3A7640000 DUP5 DUP4 PUSH2 0x3C1 SWAP2 SWAP1 PUSH2 0xA01 JUMP JUMPDEST PUSH2 0x3CB SWAP2 SWAP1 PUSH2 0x8B9 JUMP JUMPDEST SWAP1 POP DUP1 SWAP3 POP POP POP SWAP2 SWAP1 POP JUMP JUMPDEST PUSH1 0x2 PUSH1 0x0 SWAP1 SLOAD SWAP1 PUSH2 0x100 EXP SWAP1 DIV PUSH20 0xFFFFFFFFFFFFFFFFFFFFFFFFFFFFFFFFFFFFFFFF AND DUP2 JUMP JUMPDEST PUSH1 0x0 DUP1 PUSH20 0x8A753747A1FA494EC906CE90E9F37563A8AF630E SWAP1 POP PUSH1 0x0 DUP2 PUSH20 0xFFFFFFFFFFFFFFFFFFFFFFFFFFFFFFFFFFFFFFFF AND PUSH4 0xFEAF968C PUSH1 0x40 MLOAD DUP2 PUSH4 0xFFFFFFFF AND PUSH1 0xE0 SHL DUP2 MSTORE PUSH1 0x4 ADD PUSH1 0xA0 PUSH1 0x40 MLOAD DUP1 DUP4 SUB DUP2 DUP7 DUP1 EXTCODESIZE ISZERO DUP1 ISZERO PUSH2 0x45F JUMPI PUSH1 0x0 DUP1 REVERT JUMPDEST POP GAS STATICCALL ISZERO DUP1 ISZERO PUSH2 0x473 JUMPI RETURNDATASIZE PUSH1 0x0 DUP1 RETURNDATACOPY RETURNDATASIZE PUSH1 0x0 REVERT JUMPDEST POP POP POP POP PUSH1 0x40 MLOAD RETURNDATASIZE PUSH1 0x1F NOT PUSH1 0x1F DUP3 ADD AND DUP3 ADD DUP1 PUSH1 0x40 MSTORE POP DUP2 ADD SWAP1 PUSH2 0x497 SWAP2 SWAP1 PUSH2 0x744 JUMP JUMPDEST POP POP POP SWAP2 POP POP PUSH5 0x2540BE400 DUP2 PUSH2 0x4AE SWAP2 SWAP1 PUSH2 0x8EA JUMP JUMPDEST SWAP3 POP POP POP SWAP1 JUMP JUMPDEST PUSH1 0x0 PUSH9 0x2B5E3AF16B1880000 SWAP1 POP DUP1 PUSH2 0x4CD CALLVALUE PUSH2 0x39D JUMP JUMPDEST LT ISZERO PUSH2 0x50E JUMPI PUSH1 0x40 MLOAD PUSH32 0x8C379A000000000000000000000000000000000000000000000000000000000 DUP2 MSTORE PUSH1 0x4 ADD PUSH2 0x505 SWAP1 PUSH2 0x817 JUMP JUMPDEST PUSH1 0x40 MLOAD DUP1 SWAP2 SUB SWAP1 REVERT JUMPDEST CALLVALUE PUSH1 0x0 DUP1 CALLER PUSH20 0xFFFFFFFFFFFFFFFFFFFFFFFFFFFFFFFFFFFFFFFF AND PUSH20 0xFFFFFFFFFFFFFFFFFFFFFFFFFFFFFFFFFFFFFFFF AND DUP2 MSTORE PUSH1 0x20 ADD SWAP1 DUP2 MSTORE PUSH1 0x20 ADD PUSH1 0x0 KECCAK256 PUSH1 0x0 DUP3 DUP3 SLOAD PUSH2 0x55C SWAP2 SWAP1 PUSH2 0x863 JUMP JUMPDEST SWAP3 POP POP DUP2 SWAP1 SSTORE POP PUSH1 0x1 CALLER SWAP1 DUP1 PUSH1 0x1 DUP2 SLOAD ADD DUP1 DUP3 SSTORE DUP1 SWAP2 POP POP PUSH1 0x1 SWAP1 SUB SWAP1 PUSH1 0x0 MSTORE PUSH1 0x20 PUSH1 0x0 KECCAK256 ADD PUSH1 0x0 SWAP1 SWAP2 SWAP1 SWAP2 SWAP1 SWAP2 PUSH2 0x100 EXP DUP2 SLOAD DUP2 PUSH20 0xFFFFFFFFFFFFFFFFFFFFFFFFFFFFFFFFFFFFFFFF MUL NOT AND SWAP1 DUP4 PUSH20 0xFFFFFFFFFFFFFFFFFFFFFFFFFFFFFFFFFFFFFFFF AND MUL OR SWAP1 SSTORE POP CALLVALUE PUSH1 0x3 PUSH1 0x0 DUP3 DUP3 SLOAD PUSH2 0x5D8 SWAP2 SWAP1 PUSH2 0x863 JUMP JUMPDEST SWAP3 POP POP DUP2 SWAP1 SSTORE POP POP JUMP JUMPDEST DUP3 DUP1 SLOAD DUP3 DUP3 SSTORE SWAP1 PUSH1 0x0 MSTORE PUSH1 0x20 PUSH1 0x0 KECCAK256 SWAP1 DUP2 ADD SWAP3 DUP3 ISZERO PUSH2 0x65B JUMPI SWAP2 PUSH1 0x20 MUL DUP3 ADD JUMPDEST DUP3 DUP2 GT ISZERO PUSH2 0x65A JUMPI DUP3 MLOAD DUP3 PUSH1 0x0 PUSH2 0x100 EXP DUP2 SLOAD DUP2 PUSH20 0xFFFFFFFFFFFFFFFFFFFFFFFFFFFFFFFFFFFFFFFF MUL NOT AND SWAP1 DUP4 PUSH20 0xFFFFFFFFFFFFFFFFFFFFFFFFFFFFFFFFFFFFFFFF AND MUL OR SWAP1 SSTORE POP SWAP2 PUSH1 0x20 ADD SWAP2 SWAP1 PUSH1 0x1 ADD SWAP1 PUSH2 0x602 JUMP JUMPDEST JUMPDEST POP SWAP1 POP PUSH2 0x668 SWAP2 SWAP1 PUSH2 0x66C JUMP JUMPDEST POP SWAP1 JUMP JUMPDEST JUMPDEST DUP1 DUP3 GT ISZERO PUSH2 0x685 JUMPI PUSH1 0x0 DUP2 PUSH1 0x0 SWAP1 SSTORE POP PUSH1 0x1 ADD PUSH2 0x66D JUMP JUMPDEST POP SWAP1 JUMP JUMPDEST PUSH1 0x0 DUP2 CALLDATALOAD SWAP1 POP PUSH2 0x698 DUP2 PUSH2 0xBAD JUMP JUMPDEST SWAP3 SWAP2 POP POP JUMP JUMPDEST PUSH1 0x0 DUP2 MLOAD SWAP1 POP PUSH2 0x6AD DUP2 PUSH2 0xBC4 JUMP JUMPDEST SWAP3 SWAP2 POP POP JUMP JUMPDEST PUSH1 0x0 DUP2 CALLDATALOAD SWAP1 POP PUSH2 0x6C2 DUP2 PUSH2 0xBDB JUMP JUMPDEST SWAP3 SWAP2 POP POP JUMP JUMPDEST PUSH1 0x0 DUP2 MLOAD SWAP1 POP PUSH2 0x6D7 DUP2 PUSH2 0xBDB JUMP JUMPDEST SWAP3 SWAP2 POP POP JUMP JUMPDEST PUSH1 0x0 DUP2 MLOAD SWAP1 POP PUSH2 0x6EC DUP2 PUSH2 0xBF2 JUMP JUMPDEST SWAP3 SWAP2 POP POP JUMP JUMPDEST PUSH1 0x0 PUSH1 0x20 DUP3 DUP5 SUB SLT ISZERO PUSH2 0x704 JUMPI PUSH1 0x0 DUP1 REVERT JUMPDEST PUSH1 0x0 PUSH2 0x712 DUP5 DUP3 DUP6 ADD PUSH2 0x689 JUMP JUMPDEST SWAP2 POP POP SWAP3 SWAP2 POP POP JUMP JUMPDEST PUSH1 0x0 PUSH1 0x20 DUP3 DUP5 SUB SLT ISZERO PUSH2 0x72D JUMPI PUSH1 0x0 DUP1 REVERT JUMPDEST PUSH1 0x0 PUSH2 0x73B DUP5 DUP3 DUP6 ADD PUSH2 0x6B3 JUMP JUMPDEST SWAP2 POP POP SWAP3 SWAP2 POP POP JUMP JUMPDEST PUSH1 0x0 DUP1 PUSH1 0x0 DUP1 PUSH1 0x0 PUSH1 0xA0 DUP7 DUP9 SUB SLT ISZERO PUSH2 0x75C JUMPI PUSH1 0x0 DUP1 REVERT JUMPDEST PUSH1 0x0 PUSH2 0x76A DUP9 DUP3 DUP10 ADD PUSH2 0x6DD JUMP JUMPDEST SWAP6 POP POP PUSH1 0x20 PUSH2 0x77B DUP9 DUP3 DUP10 ADD PUSH2 0x69E JUMP JUMPDEST SWAP5 POP POP PUSH1 0x40 PUSH2 0x78C DUP9 DUP3 DUP10 ADD PUSH2 0x6C8 JUMP JUMPDEST SWAP4 POP POP PUSH1 0x60 PUSH2 0x79D DUP9 DUP3 DUP10 ADD PUSH2 0x6C8 JUMP JUMPDEST SWAP3 POP POP PUSH1 0x80 PUSH2 0x7AE DUP9 DUP3 DUP10 ADD PUSH2 0x6DD JUMP JUMPDEST SWAP2 POP POP SWAP3 SWAP6 POP SWAP3 SWAP6 SWAP1 SWAP4 POP JUMP JUMPDEST PUSH2 0x7C4 DUP2 PUSH2 0xA5B JUMP JUMPDEST DUP3 MSTORE POP POP JUMP JUMPDEST PUSH1 0x0 PUSH2 0x7D7 PUSH1 0x36 DUP4 PUSH2 0x852 JUMP JUMPDEST SWAP2 POP PUSH2 0x7E2 DUP3 PUSH2 0xB5E JUMP JUMPDEST PUSH1 0x40 DUP3 ADD SWAP1 POP SWAP2 SWAP1 POP JUMP JUMPDEST PUSH2 0x7F6 DUP2 PUSH2 0xA97 JUMP JUMPDEST DUP3 MSTORE POP POP JUMP JUMPDEST PUSH1 0x0 PUSH1 0x20 DUP3 ADD SWAP1 POP PUSH2 0x811 PUSH1 0x0 DUP4 ADD DUP5 PUSH2 0x7BB JUMP JUMPDEST SWAP3 SWAP2 POP POP JUMP JUMPDEST PUSH1 0x0 PUSH1 0x20 DUP3 ADD SWAP1 POP DUP2 DUP2 SUB PUSH1 0x0 DUP4 ADD MSTORE PUSH2 0x830 DUP2 PUSH2 0x7CA JUMP JUMPDEST SWAP1 POP SWAP2 SWAP1 POP JUMP JUMPDEST PUSH1 0x0 PUSH1 0x20 DUP3 ADD SWAP1 POP PUSH2 0x84C PUSH1 0x0 DUP4 ADD DUP5 PUSH2 0x7ED JUMP JUMPDEST SWAP3 SWAP2 POP POP JUMP JUMPDEST PUSH1 0x0 DUP3 DUP3 MSTORE PUSH1 0x20 DUP3 ADD SWAP1 POP SWAP3 SWAP2 POP POP JUMP JUMPDEST PUSH1 0x0 PUSH2 0x86E DUP3 PUSH2 0xA97 JUMP JUMPDEST SWAP2 POP PUSH2 0x879 DUP4 PUSH2 0xA97 JUMP JUMPDEST SWAP3 POP DUP3 PUSH32 0xFFFFFFFFFFFFFFFFFFFFFFFFFFFFFFFFFFFFFFFFFFFFFFFFFFFFFFFFFFFFFFFF SUB DUP3 GT ISZERO PUSH2 0x8AE JUMPI PUSH2 0x8AD PUSH2 0xB00 JUMP JUMPDEST JUMPDEST DUP3 DUP3 ADD SWAP1 POP SWAP3 SWAP2 POP POP JUMP JUMPDEST PUSH1 0x0 PUSH2 0x8C4 DUP3 PUSH2 0xA97 JUMP JUMPDEST SWAP2 POP PUSH2 0x8CF DUP4 PUSH2 0xA97 JUMP JUMPDEST SWAP3 POP DUP3 PUSH2 0x8DF JUMPI PUSH2 0x8DE PUSH2 0xB2F JUMP JUMPDEST JUMPDEST DUP3 DUP3 DIV SWAP1 POP SWAP3 SWAP2 POP POP JUMP JUMPDEST PUSH1 0x0 PUSH2 0x8F5 DUP3 PUSH2 0xA6D JUMP JUMPDEST SWAP2 POP PUSH2 0x900 DUP4 PUSH2 0xA6D JUMP JUMPDEST SWAP3 POP DUP3 PUSH32 0x7FFFFFFFFFFFFFFFFFFFFFFFFFFFFFFFFFFFFFFFFFFFFFFFFFFFFFFFFFFFFFFF DIV DUP3 GT PUSH1 0x0 DUP5 SGT PUSH1 0x0 DUP5 SGT AND AND ISZERO PUSH2 0x93F JUMPI PUSH2 0x93E PUSH2 0xB00 JUMP JUMPDEST JUMPDEST DUP2 PUSH32 0x8000000000000000000000000000000000000000000000000000000000000000 SDIV DUP4 SLT PUSH1 0x0 DUP5 SLT PUSH1 0x0 DUP5 SGT AND AND ISZERO PUSH2 0x97C JUMPI PUSH2 0x97B PUSH2 0xB00 JUMP JUMPDEST JUMPDEST DUP3 PUSH32 0x8000000000000000000000000000000000000000000000000000000000000000 SDIV DUP3 SLT PUSH1 0x0 DUP5 SGT PUSH1 0x0 DUP5 SLT AND AND ISZERO PUSH2 0x9B9 JUMPI PUSH2 0x9B8 PUSH2 0xB00 JUMP JUMPDEST JUMPDEST DUP3 PUSH32 0x7FFFFFFFFFFFFFFFFFFFFFFFFFFFFFFFFFFFFFFFFFFFFFFFFFFFFFFFFFFFFFFF SDIV DUP3 SLT PUSH1 0x0 DUP5 SLT PUSH1 0x0 DUP5 SLT AND AND ISZERO PUSH2 0x9F6 JUMPI PUSH2 0x9F5 PUSH2 0xB00 JUMP JUMPDEST JUMPDEST DUP3 DUP3 MUL SWAP1 POP SWAP3 SWAP2 POP POP JUMP JUMPDEST PUSH1 0x0 PUSH2 0xA0C DUP3 PUSH2 0xA97 JUMP JUMPDEST SWAP2 POP PUSH2 0xA17 DUP4 PUSH2 0xA97 JUMP JUMPDEST SWAP3 POP DUP2 PUSH32 0xFFFFFFFFFFFFFFFFFFFFFFFFFFFFFFFFFFFFFFFFFFFFFFFFFFFFFFFFFFFFFFFF DIV DUP4 GT DUP3 ISZERO ISZERO AND ISZERO PUSH2 0xA50 JUMPI PUSH2 0xA4F PUSH2 0xB00 JUMP JUMPDEST JUMPDEST DUP3 DUP3 MUL SWAP1 POP SWAP3 SWAP2 POP POP JUMP JUMPDEST PUSH1 0x0 PUSH2 0xA66 DUP3 PUSH2 0xA77 JUMP JUMPDEST SWAP1 POP SWAP2 SWAP1 POP JUMP JUMPDEST PUSH1 0x0 DUP2 SWAP1 POP SWAP2 SWAP1 POP JUMP JUMPDEST PUSH1 0x0 PUSH20 0xFFFFFFFFFFFFFFFFFFFFFFFFFFFFFFFFFFFFFFFF DUP3 AND SWAP1 POP SWAP2 SWAP1 POP JUMP JUMPDEST PUSH1 0x0 DUP2 SWAP1 POP SWAP2 SWAP1 POP JUMP JUMPDEST PUSH1 0x0 PUSH10 0xFFFFFFFFFFFFFFFFFFFF DUP3 AND SWAP1 POP SWAP2 SWAP1 POP JUMP JUMPDEST PUSH1 0x0 PUSH2 0xAC2 DUP3 PUSH2 0xA97 JUMP JUMPDEST SWAP2 POP PUSH32 0xFFFFFFFFFFFFFFFFFFFFFFFFFFFFFFFFFFFFFFFFFFFFFFFFFFFFFFFFFFFFFFFF DUP3 EQ ISZERO PUSH2 0xAF5 JUMPI PUSH2 0xAF4 PUSH2 0xB00 JUMP JUMPDEST JUMPDEST PUSH1 0x1 DUP3 ADD SWAP1 POP SWAP2 SWAP1 POP JUMP JUMPDEST PUSH32 0x4E487B7100000000000000000000000000000000000000000000000000000000 PUSH1 0x0 MSTORE PUSH1 0x11 PUSH1 0x4 MSTORE PUSH1 0x24 PUSH1 0x0 REVERT JUMPDEST PUSH32 0x4E487B7100000000000000000000000000000000000000000000000000000000 PUSH1 0x0 MSTORE PUSH1 0x12 PUSH1 0x4 MSTORE PUSH1 0x24 PUSH1 0x0 REVERT JUMPDEST PUSH32 0x43757272656E746C79206E6F7420616363657074696E6720646F6E6174696F6E PUSH1 0x0 DUP3 ADD MSTORE PUSH32 0x732076616C7565642062656C6F77202435302055534400000000000000000000 PUSH1 0x20 DUP3 ADD MSTORE POP JUMP JUMPDEST PUSH2 0xBB6 DUP2 PUSH2 0xA5B JUMP JUMPDEST DUP2 EQ PUSH2 0xBC1 JUMPI PUSH1 0x0 DUP1 REVERT JUMPDEST POP JUMP JUMPDEST PUSH2 0xBCD DUP2 PUSH2 0xA6D JUMP JUMPDEST DUP2 EQ PUSH2 0xBD8 JUMPI PUSH1 0x0 DUP1 REVERT JUMPDEST POP JUMP JUMPDEST PUSH2 0xBE4 DUP2 PUSH2 0xA97 JUMP JUMPDEST DUP2 EQ PUSH2 0xBEF JUMPI PUSH1 0x0 DUP1 REVERT JUMPDEST POP JUMP JUMPDEST PUSH2 0xBFB DUP2 PUSH2 0xAA1 JUMP JUMPDEST DUP2 EQ PUSH2 0xC06 JUMPI PUSH1 0x0 DUP1 REVERT JUMPDEST POP JUMP INVALID LOG2 PUSH5 0x6970667358 0x22 SLT KECCAK256 0xE2 PUSH32 0xC73421587D1C2822E23278030A66975D01DE808B1D1CA389FE82444ADF936473 PUSH16 0x6C634300080100330000000000000000 "
				},
				"gasEstimates": {
					"creation": {
						"codeDepositCost": "627000",
						"executionCost": "41531",
						"totalCost": "668531"
					},
					"external": {
						"addressToAmountFunded(address)": "1537",
						"fund()": "infinite",
						"getConversionRate(uint256)": "infinite",
						"getPrice()": "infinite",
						"owner()": "1236",
						"totalFundsRaised()": "1174",
						"withdraw()": "infinite"
					}
				},
				"methodIdentifiers": {
					"addressToAmountFunded(address)": "3e47d6f3",
					"fund()": "b60d4288",
					"getConversionRate(uint256)": "6e5b6b28",
					"getPrice()": "98d5fdca",
					"owner()": "8da5cb5b",
					"totalFundsRaised()": "427c0c7f",
					"withdraw()": "3ccfd60b"
				}
			},
			"storageLayout": {
				"storage": [
					{
						"astId": 180,
						"contract": "contracts/FundMe.sol:FundMe",
						"label": "addressToAmountFunded",
						"offset": 0,
						"slot": "0",
						"type": "t_mapping(t_address,t_uint256)"
					},
					{
						"astId": 183,
						"contract": "contracts/FundMe.sol:FundMe",
						"label": "funders",
						"offset": 0,
						"slot": "1",
						"type": "t_array(t_address)dyn_storage"
					},
					{
						"astId": 185,
						"contract": "contracts/FundMe.sol:FundMe",
						"label": "owner",
						"offset": 0,
						"slot": "2",
						"type": "t_address"
					},
					{
						"astId": 192,
						"contract": "contracts/FundMe.sol:FundMe",
						"label": "totalFundsRaised",
						"offset": 0,
						"slot": "3",
						"type": "t_uint256"
					}
				],
				"types": {
					"t_address": {
						"encoding": "inplace",
						"label": "address",
						"numberOfBytes": "20"
					},
					"t_array(t_address)dyn_storage": {
						"base": "t_address",
						"encoding": "dynamic_array",
						"label": "address[]",
						"numberOfBytes": "32"
					},
					"t_mapping(t_address,t_uint256)": {
						"encoding": "mapping",
						"key": "t_address",
						"label": "mapping(address => uint256)",
						"numberOfBytes": "32",
						"value": "t_uint256"
					},
					"t_uint256": {
						"encoding": "inplace",
						"label": "uint256",
						"numberOfBytes": "32"
					}
				}
			},
			"userdoc": {
				"kind": "user",
				"methods": {},
				"version": 1
			}
		}
	}
}